{
  "_format": "hh-sol-artifact-1",
  "contractName": "CertificateStorage",
  "sourceName": "contracts/CertificateStorage.sol",
  "abi": [
    {
      "inputs": [],
      "stateMutability": "nonpayable",
      "type": "constructor"
    },
    {
      "anonymous": false,
      "inputs": [
        {
          "indexed": true,
          "internalType": "bytes32",
          "name": "certificateId",
          "type": "bytes32"
        },
        {
          "indexed": false,
          "internalType": "string",
          "name": "studentName",
          "type": "string"
        },
        {
          "indexed": false,
          "internalType": "string",
          "name": "course",
          "type": "string"
        },
        {
          "indexed": true,
          "internalType": "address",
          "name": "issuer",
          "type": "address"
        },
        {
          "indexed": true,
          "internalType": "address",
          "name": "student",
          "type": "address"
        },
        {
          "indexed": false,
          "internalType": "uint256",
          "name": "timestamp",
          "type": "uint256"
        },
        {
          "indexed": false,
          "internalType": "string",
          "name": "instituteName",
          "type": "string"
        }
      ],
      "name": "CertificateIssued",
      "type": "event"
    },
    {
      "anonymous": false,
      "inputs": [
        {
          "indexed": true,
          "internalType": "bytes32",
          "name": "certificateId",
          "type": "bytes32"
        },
        {
          "indexed": false,
          "internalType": "address",
          "name": "revokedBy",
          "type": "address"
        }
      ],
      "name": "CertificateRevoked",
      "type": "event"
    },
    {
      "anonymous": false,
      "inputs": [
        {
          "indexed": true,
          "internalType": "address",
          "name": "instituteWallet",
          "type": "address"
        },
        {
          "indexed": false,
          "internalType": "string",
          "name": "name",
          "type": "string"
        },
        {
          "indexed": false,
          "internalType": "string",
          "name": "id",
          "type": "string"
        },
        {
          "indexed": false,
          "internalType": "uint256",
          "name": "timestamp",
          "type": "uint256"
        }
      ],
      "name": "InstituteRegistered",
      "type": "event"
    },
    {
      "anonymous": false,
      "inputs": [
        {
          "indexed": true,
          "internalType": "address",
          "name": "instituteWallet",
          "type": "address"
        },
        {
          "indexed": false,
          "internalType": "bool",
          "name": "isActive",
          "type": "bool"
        }
      ],
      "name": "InstituteStatusChanged",
      "type": "event"
    },
    {
      "anonymous": false,
      "inputs": [
        {
          "indexed": true,
          "internalType": "address",
          "name": "instituteWallet",
          "type": "address"
        },
        {
          "indexed": false,
          "internalType": "string",
          "name": "name",
          "type": "string"
        },
        {
          "indexed": false,
          "internalType": "string",
          "name": "email",
          "type": "string"
        },
        {
          "indexed": false,
          "internalType": "string",
          "name": "website",
          "type": "string"
        }
      ],
      "name": "InstituteUpdated",
      "type": "event"
    },
    {
      "inputs": [
        {
          "internalType": "bytes32",
          "name": "_certificateId",
          "type": "bytes32"
        }
      ],
      "name": "certificateExists",
      "outputs": [
        {
          "internalType": "bool",
          "name": "",
          "type": "bool"
        }
      ],
      "stateMutability": "view",
      "type": "function"
    },
    {
      "inputs": [
        {
          "internalType": "bytes32",
          "name": "",
          "type": "bytes32"
        }
      ],
      "name": "certificateHashes",
      "outputs": [
        {
          "internalType": "bool",
          "name": "",
          "type": "bool"
        }
      ],
      "stateMutability": "view",
      "type": "function"
    },
    {
      "inputs": [
        {
          "internalType": "bytes32",
          "name": "",
          "type": "bytes32"
        }
      ],
      "name": "certificates",
      "outputs": [
        {
          "internalType": "string",
          "name": "studentName",
          "type": "string"
        },
        {
          "internalType": "string",
          "name": "course",
          "type": "string"
        },
        {
          "internalType": "string",
          "name": "ipfsHash",
          "type": "string"
        },
        {
          "internalType": "bytes32",
          "name": "fileHash",
          "type": "bytes32"
        },
        {
          "internalType": "address",
          "name": "issuer",
          "type": "address"
        },
        {
          "internalType": "address",
          "name": "student",
          "type": "address"
        },
        {
          "internalType": "uint256",
          "name": "issuedAt",
          "type": "uint256"
        },
        {
          "internalType": "bool",
          "name": "revoked",
          "type": "bool"
        },
        {
          "internalType": "string",
          "name": "instituteName",
          "type": "string"
        },
        {
          "internalType": "string",
          "name": "studentId",
          "type": "string"
        },
        {
          "internalType": "string",
          "name": "grade",
          "type": "string"
        },
        {
          "internalType": "uint256",
          "name": "credits",
          "type": "uint256"
        },
        {
          "internalType": "string",
          "name": "duration",
          "type": "string"
        }
      ],
      "stateMutability": "view",
      "type": "function"
    },
    {
      "inputs": [],
      "name": "getAllInstitutes",
      "outputs": [
        {
          "internalType": "address[]",
          "name": "",
          "type": "address[]"
        }
      ],
      "stateMutability": "view",
      "type": "function"
    },
    {
      "inputs": [
        {
          "internalType": "address",
          "name": "_walletAddress",
          "type": "address"
        }
      ],
      "name": "getInstituteBasicInfo",
      "outputs": [
        {
          "internalType": "string",
          "name": "name",
          "type": "string"
        },
        {
          "internalType": "string",
          "name": "id",
          "type": "string"
        },
        {
          "internalType": "string",
          "name": "email",
          "type": "string"
        },
        {
          "internalType": "string",
          "name": "website",
          "type": "string"
        },
        {
          "internalType": "bool",
          "name": "isActive",
          "type": "bool"
        },
        {
          "internalType": "uint256",
          "name": "registeredAt",
          "type": "uint256"
        },
        {
          "internalType": "uint256",
          "name": "certificatesIssued",
          "type": "uint256"
        }
      ],
      "stateMutability": "view",
      "type": "function"
    },
    {
      "inputs": [
        {
          "internalType": "address",
          "name": "_walletAddress",
          "type": "address"
        }
      ],
      "name": "getInstituteContactInfo",
      "outputs": [
        {
          "internalType": "string",
          "name": "contactPerson",
          "type": "string"
        },
        {
          "internalType": "string",
          "name": "contactEmail",
          "type": "string"
        },
        {
          "internalType": "string",
          "name": "contactPhone",
          "type": "string"
        },
        {
          "internalType": "string",
          "name": "contactPosition",
          "type": "string"
        }
      ],
      "stateMutability": "view",
      "type": "function"
    },
    {
      "inputs": [],
      "name": "getInstituteCount",
      "outputs": [
        {
          "internalType": "uint256",
          "name": "",
          "type": "uint256"
        }
      ],
      "stateMutability": "view",
      "type": "function"
    },
    {
      "inputs": [
        {
          "internalType": "address",
          "name": "_walletAddress",
          "type": "address"
        }
      ],
      "name": "getInstituteDetails",
      "outputs": [
        {
          "internalType": "uint256",
          "name": "establishedYear",
          "type": "uint256"
        },
        {
          "internalType": "string",
          "name": "accreditation",
          "type": "string"
        },
        {
          "internalType": "string",
          "name": "description",
          "type": "string"
        },
        {
          "internalType": "string",
          "name": "motto",
          "type": "string"
        },
        {
          "internalType": "uint256",
          "name": "studentCount",
          "type": "uint256"
        },
        {
          "internalType": "uint256",
          "name": "facultyCount",
          "type": "uint256"
        },
        {
          "internalType": "uint256",
          "name": "programCount",
          "type": "uint256"
        }
      ],
      "stateMutability": "view",
      "type": "function"
    },
    {
      "inputs": [
        {
          "internalType": "address",
          "name": "_walletAddress",
          "type": "address"
        }
      ],
      "name": "getInstituteSocialInfo",
      "outputs": [
        {
          "internalType": "string",
          "name": "twitter",
          "type": "string"
        },
        {
          "internalType": "string",
          "name": "linkedin",
          "type": "string"
        },
        {
          "internalType": "string",
          "name": "taxId",
          "type": "string"
        },
        {
          "internalType": "string",
          "name": "registrationNumber",
          "type": "string"
        }
      ],
      "stateMutability": "view",
      "type": "function"
    },
    {
      "inputs": [
        {
          "internalType": "address",
          "name": "_issuer",
          "type": "address"
        }
      ],
      "name": "getIssuerCertificates",
      "outputs": [
        {
          "internalType": "bytes32[]",
          "name": "",
          "type": "bytes32[]"
        }
      ],
      "stateMutability": "view",
      "type": "function"
    },
    {
      "inputs": [
        {
          "internalType": "address",
          "name": "_student",
          "type": "address"
        }
      ],
      "name": "getStudentCertificates",
      "outputs": [
        {
          "internalType": "bytes32[]",
          "name": "",
          "type": "bytes32[]"
        }
      ],
      "stateMutability": "view",
      "type": "function"
    },
    {
      "inputs": [],
      "name": "getTotalActiveInstitutes",
      "outputs": [
        {
          "internalType": "uint256",
          "name": "",
          "type": "uint256"
        }
      ],
      "stateMutability": "view",
      "type": "function"
    },
    {
      "inputs": [],
      "name": "getTotalCertificates",
      "outputs": [
        {
          "internalType": "uint256",
          "name": "",
          "type": "uint256"
        }
      ],
      "stateMutability": "view",
      "type": "function"
    },
    {
      "inputs": [],
      "name": "getTotalInstitutes",
      "outputs": [
        {
          "internalType": "uint256",
          "name": "",
          "type": "uint256"
        }
      ],
      "stateMutability": "view",
      "type": "function"
    },
    {
      "inputs": [],
      "name": "getTotalStudents",
      "outputs": [
        {
          "internalType": "uint256",
          "name": "",
          "type": "uint256"
        }
      ],
      "stateMutability": "view",
      "type": "function"
    },
    {
      "inputs": [
        {
          "internalType": "string",
          "name": "",
          "type": "string"
        }
      ],
      "name": "instituteIdExists",
      "outputs": [
        {
          "internalType": "bool",
          "name": "",
          "type": "bool"
        }
      ],
      "stateMutability": "view",
      "type": "function"
    },
    {
      "inputs": [
        {
          "internalType": "uint256",
          "name": "",
          "type": "uint256"
        }
      ],
      "name": "instituteList",
      "outputs": [
        {
          "internalType": "address",
          "name": "",
          "type": "address"
        }
      ],
      "stateMutability": "view",
      "type": "function"
    },
    {
      "inputs": [
        {
          "internalType": "address",
          "name": "",
          "type": "address"
        }
      ],
      "name": "institutes",
      "outputs": [
        {
          "internalType": "string",
          "name": "name",
          "type": "string"
        },
        {
          "internalType": "string",
          "name": "id",
          "type": "string"
        },
        {
          "internalType": "string",
          "name": "email",
          "type": "string"
        },
        {
          "internalType": "string",
          "name": "website",
          "type": "string"
        },
        {
          "internalType": "address",
          "name": "walletAddress",
          "type": "address"
        },
        {
          "internalType": "bool",
          "name": "isActive",
          "type": "bool"
        },
        {
          "internalType": "uint256",
          "name": "registeredAt",
          "type": "uint256"
        },
        {
          "internalType": "uint256",
          "name": "certificatesIssued",
          "type": "uint256"
        },
        {
          "internalType": "string",
          "name": "contactPerson",
          "type": "string"
        },
        {
          "internalType": "string",
          "name": "contactEmail",
          "type": "string"
        },
        {
          "internalType": "string",
          "name": "contactPhone",
          "type": "string"
        },
        {
          "internalType": "string",
          "name": "contactPosition",
          "type": "string"
        },
        {
          "internalType": "uint256",
          "name": "establishedYear",
          "type": "uint256"
        },
        {
          "internalType": "string",
          "name": "accreditation",
          "type": "string"
        },
        {
          "internalType": "string",
          "name": "description",
          "type": "string"
        },
        {
          "internalType": "string",
          "name": "motto",
          "type": "string"
        },
        {
          "internalType": "uint256",
          "name": "studentCount",
          "type": "uint256"
        },
        {
          "internalType": "uint256",
          "name": "facultyCount",
          "type": "uint256"
        },
        {
          "internalType": "uint256",
          "name": "programCount",
          "type": "uint256"
        },
        {
          "internalType": "string",
          "name": "twitter",
          "type": "string"
        },
        {
          "internalType": "string",
          "name": "linkedin",
          "type": "string"
        },
        {
          "internalType": "string",
          "name": "taxId",
          "type": "string"
        },
        {
          "internalType": "string",
          "name": "registrationNumber",
          "type": "string"
        }
      ],
      "stateMutability": "view",
      "type": "function"
    },
    {
      "inputs": [
        {
          "internalType": "address",
          "name": "",
          "type": "address"
        }
      ],
      "name": "isStudent",
      "outputs": [
        {
          "internalType": "bool",
          "name": "",
          "type": "bool"
        }
      ],
      "stateMutability": "view",
      "type": "function"
    },
    {
      "inputs": [
        {
          "internalType": "string",
          "name": "_studentName",
          "type": "string"
        },
        {
          "internalType": "string",
          "name": "_course",
          "type": "string"
        },
        {
          "internalType": "string",
          "name": "_ipfsHash",
          "type": "string"
        },
        {
          "internalType": "bytes32",
          "name": "_fileHash",
          "type": "bytes32"
        },
        {
          "internalType": "address",
          "name": "_studentWallet",
          "type": "address"
        },
        {
          "internalType": "string",
          "name": "_studentId",
          "type": "string"
        },
        {
          "internalType": "string",
          "name": "_grade",
          "type": "string"
        },
        {
          "internalType": "uint256",
          "name": "_credits",
          "type": "uint256"
        },
        {
          "internalType": "string",
          "name": "_duration",
          "type": "string"
        },
        {
          "internalType": "string[]",
          "name": "_skills",
          "type": "string[]"
        }
      ],
      "name": "issueCertificate",
      "outputs": [
        {
          "internalType": "bytes32",
          "name": "",
          "type": "bytes32"
        }
      ],
      "stateMutability": "nonpayable",
      "type": "function"
    },
    {
      "inputs": [
        {
          "internalType": "address",
          "name": "",
          "type": "address"
        },
        {
          "internalType": "uint256",
          "name": "",
          "type": "uint256"
        }
      ],
      "name": "issuerCertificates",
      "outputs": [
        {
          "internalType": "bytes32",
          "name": "",
          "type": "bytes32"
        }
      ],
      "stateMutability": "view",
      "type": "function"
    },
    {
      "inputs": [
        {
          "internalType": "address",
          "name": "",
          "type": "address"
        }
      ],
      "name": "issuers",
      "outputs": [
        {
          "internalType": "bool",
          "name": "",
          "type": "bool"
        }
      ],
      "stateMutability": "view",
      "type": "function"
    },
    {
      "inputs": [],
      "name": "owner",
      "outputs": [
        {
          "internalType": "address",
          "name": "",
          "type": "address"
        }
      ],
      "stateMutability": "view",
      "type": "function"
    },
    {
      "inputs": [
        {
          "internalType": "string",
          "name": "_name",
          "type": "string"
        },
        {
          "internalType": "string",
          "name": "_id",
          "type": "string"
        },
        {
          "internalType": "string",
          "name": "_email",
          "type": "string"
        },
        {
          "internalType": "string",
          "name": "_website",
          "type": "string"
        },
        {
          "internalType": "address",
          "name": "_walletAddress",
          "type": "address"
        },
        {
          "internalType": "string",
          "name": "_contactPerson",
          "type": "string"
        },
        {
          "internalType": "string",
          "name": "_contactEmail",
          "type": "string"
        },
        {
          "internalType": "string",
          "name": "_contactPhone",
          "type": "string"
        },
        {
          "internalType": "string",
          "name": "_contactPosition",
          "type": "string"
        },
        {
          "internalType": "uint256",
          "name": "_establishedYear",
          "type": "uint256"
        },
        {
          "internalType": "string",
          "name": "_accreditation",
          "type": "string"
        },
        {
          "internalType": "string",
          "name": "_description",
          "type": "string"
        },
        {
          "internalType": "string",
          "name": "_motto",
          "type": "string"
        },
        {
          "internalType": "uint256",
          "name": "_studentCount",
          "type": "uint256"
        },
        {
          "internalType": "uint256",
          "name": "_facultyCount",
          "type": "uint256"
        },
        {
          "internalType": "uint256",
          "name": "_programCount",
          "type": "uint256"
        },
        {
          "internalType": "string",
          "name": "_twitter",
          "type": "string"
        },
        {
          "internalType": "string",
          "name": "_linkedin",
          "type": "string"
        },
        {
          "internalType": "string",
          "name": "_taxId",
          "type": "string"
        },
        {
          "internalType": "string",
          "name": "_registrationNumber",
          "type": "string"
        }
      ],
      "name": "registerInstitute",
      "outputs": [
        {
          "internalType": "bool",
          "name": "",
          "type": "bool"
        }
      ],
      "stateMutability": "nonpayable",
      "type": "function"
    },
    {
      "inputs": [
        {
          "internalType": "bytes32",
          "name": "_certificateId",
          "type": "bytes32"
        }
      ],
      "name": "revokeCertificate",
      "outputs": [],
      "stateMutability": "nonpayable",
      "type": "function"
    },
    {
      "inputs": [
        {
          "internalType": "address",
          "name": "_walletAddress",
          "type": "address"
        },
        {
          "internalType": "bool",
          "name": "_isActive",
          "type": "bool"
        }
      ],
      "name": "setInstituteStatus",
      "outputs": [],
      "stateMutability": "nonpayable",
      "type": "function"
    },
    {
      "inputs": [
        {
          "internalType": "address",
          "name": "",
          "type": "address"
        },
        {
          "internalType": "uint256",
          "name": "",
          "type": "uint256"
        }
      ],
      "name": "studentCertificates",
      "outputs": [
        {
          "internalType": "bytes32",
          "name": "",
          "type": "bytes32"
        }
      ],
      "stateMutability": "view",
      "type": "function"
    },
    {
      "inputs": [
        {
          "internalType": "uint256",
          "name": "",
          "type": "uint256"
        }
      ],
      "name": "studentList",
      "outputs": [
        {
          "internalType": "address",
          "name": "",
          "type": "address"
        }
      ],
      "stateMutability": "view",
      "type": "function"
    },
    {
      "inputs": [
        {
          "internalType": "address",
          "name": "_walletAddress",
          "type": "address"
        },
        {
          "internalType": "string",
          "name": "_name",
          "type": "string"
        },
        {
          "internalType": "string",
          "name": "_email",
          "type": "string"
        },
        {
          "internalType": "string",
          "name": "_website",
          "type": "string"
        },
        {
          "internalType": "string",
          "name": "_contactPerson",
          "type": "string"
        },
        {
          "internalType": "string",
          "name": "_contactEmail",
          "type": "string"
        },
        {
          "internalType": "string",
          "name": "_contactPhone",
          "type": "string"
        },
        {
          "internalType": "string",
          "name": "_contactPosition",
          "type": "string"
        },
        {
          "internalType": "string",
          "name": "_description",
          "type": "string"
        },
        {
          "internalType": "string",
          "name": "_motto",
          "type": "string"
        },
        {
          "internalType": "string",
          "name": "_twitter",
          "type": "string"
        },
        {
          "internalType": "string",
          "name": "_linkedin",
          "type": "string"
        }
      ],
      "name": "updateInstitute",
      "outputs": [],
      "stateMutability": "nonpayable",
      "type": "function"
    },
    {
      "inputs": [
        {
          "internalType": "bytes32",
          "name": "_certificateId",
          "type": "bytes32"
        }
      ],
      "name": "verifyCertificate",
      "outputs": [
        {
          "internalType": "string",
          "name": "studentName",
          "type": "string"
        },
        {
          "internalType": "string",
          "name": "course",
          "type": "string"
        },
        {
          "internalType": "string",
          "name": "ipfsHash",
          "type": "string"
        },
        {
          "internalType": "bytes32",
          "name": "fileHash",
          "type": "bytes32"
        },
        {
          "internalType": "address",
          "name": "issuer",
          "type": "address"
        },
        {
          "internalType": "address",
          "name": "student",
          "type": "address"
        },
        {
          "internalType": "uint256",
          "name": "issuedAt",
          "type": "uint256"
        },
        {
          "internalType": "bool",
          "name": "revoked",
          "type": "bool"
        },
        {
          "internalType": "string",
          "name": "instituteName",
          "type": "string"
        },
        {
          "internalType": "string",
          "name": "studentId",
          "type": "string"
        },
        {
          "internalType": "string",
          "name": "grade",
          "type": "string"
        },
        {
          "internalType": "uint256",
          "name": "credits",
          "type": "uint256"
        },
        {
          "internalType": "string",
          "name": "duration",
          "type": "string"
        },
        {
          "internalType": "string[]",
          "name": "skills",
          "type": "string[]"
        }
      ],
      "stateMutability": "view",
      "type": "function"
    }
  ],
  "bytecode": "0x346200187357600780546001600160a01b031916339081179091556000908152600260205260409020805460ff191660011790556103606040526200004362001878565b600f81526e41646d696e20496e7374697475746560881b60208201526080526200006c62001878565b600881526741444d494e30303160c01b602082015260a0526200008e62001878565b601781527f61646d696e40656475626c6f636b636861696e2e636f6d00000000000000000090816020820152604060800152620000ca62001878565b601981527f68747470733a2f2f656475626c6f636b636861696e2e636f6d00000000000000602082015260e052336101005260016101205242610140526000610160526200011762001878565b600c81526b29bcb9ba32b69020b236b4b760a11b6020820152610180526200013e62001878565b90601782526020820152610120608001526200015962001878565b601181527002b31202835353529203030302d3030303607c1b60208201526101c0526200018562001878565b600b81526a29bab832b91020b236b4b760a91b60208201526101e0526107e861020052620001b262001878565b600f81526e14d95b198b5058d8dc99591a5d1959608a1b6020820152610220526040516001600160401b03606082019081119082111762000ae25760608101604052602c81527f4d61696e2061646d696e6973747261746f72206f6620456475426c6f636b636860208201526b61696e20706c6174666f726d60a01b60408201526101c0608001526200024462001878565b601081526f29b2b1bab9329022b23ab1b0ba34b7b760811b60208201526102605260006102808190526102a08190526102c0526200028162001878565b600e81526d2032b23ab13637b1b5b1b430b4b760911b60208201526102e052620002aa62001878565b600d81526c32b23ab13637b1b5b1b430b4b760991b602082015261030052620002d262001878565b600d81526c5441582d41444d494e2d30303160981b602082015261032052620002fa62001878565b600d81526c5245472d41444d494e2d30303160981b60208201526102c060800152336000526000602052604060002060805180519060018060401b03821162000ae257825490600182811c9216801562001868575b602083101462000bc75781601f84931162001813575b50602090601f8311600114620017a25760009262001796575b50508160011b916000199060031b1c19161781555b60a0518051906001600160401b03821162000ae257600183015490600182811c921680156200178b575b602083101462000bc75781601f84931162001733575b50602090601f8311600114620016bc57600092620016b0575b50508160011b916000199060031b1c19161760018201555b60c0518051906001600160401b03821162000ae257600283015490600182811c92168015620016a5575b602083101462000bc75781601f8493116200164d575b50602090601f8311600114620015d657600092620015ca575b50508160011b916000199060031b1c19161760028201555b60e0518051906001600160401b03821162000ae257600383015490600182811c92168015620015bf575b602083101462000bc75781601f84931162001567575b50602090601f8311600114620014f057600092620014e4575b50508160011b916000199060031b1c19161760038201555b610100516004820180546101205160ff60a01b90151560a01b166001600160a01b039093166001600160a81b031990911617919091179055610140516005820155610160516006820155610180518051906001600160401b03821162000ae257600783015490600182811c92168015620014d9575b602083101462000bc75781601f84931162001481575b50602090601f83116001146200140a57600092620013fe575b50508160011b916000199060031b1c19161760078201555b6101a0518051906001600160401b03821162000ae257600883015490600182811c92168015620013f3575b602083101462000bc75781601f8493116200139b575b50602090601f8311600114620013245760009262001318575b50508160011b916000199060031b1c19161760088201555b6101c0518051906001600160401b03821162000ae257600983015490600182811c921680156200130d575b602083101462000bc75781601f849311620012b5575b50602090601f83116001146200123e5760009262001232575b50508160011b916000199060031b1c19161760098201555b6101e0518051906001600160401b03821162000ae257600a83015490600182811c9216801562001227575b602083101462000bc75781601f849311620011cf575b50602090601f831160011462001158576000926200114c575b50508160011b916000199060031b1c191617600a8201555b61020051600b820155610220518051906001600160401b03821162000ae257600c83015490600182811c9216801562001141575b602083101462000bc75781601f849311620010e9575b50602090601f8311600114620010725760009262001066575b50508160011b916000199060031b1c191617600c8201555b610240518051906001600160401b03821162000ae257600d83015490600182811c921680156200105b575b602083101462000bc75781601f84931162001003575b50602090601f831160011462000f8c5760009262000f80575b50508160011b916000199060031b1c191617600d8201555b610260518051906001600160401b03821162000ae257600e83015490600182811c9216801562000f75575b602083101462000bc75781601f84931162000f1d575b50602090601f831160011462000ea65760009262000e9a575b50508160011b916000199060031b1c191617600e8201555b61028051600f8201556102a05160108201556102c05160118201556102e0518051906001600160401b03821162000ae257601283015490600182811c9216801562000e8f575b602083101462000bc75781601f84931162000e37575b50602090601f831160011462000dc05760009262000db4575b50508160011b916000199060031b1c19161760128201555b610300518051906001600160401b03821162000ae257601383015490600182811c9216801562000da9575b602083101462000bc75781601f84931162000d51575b50602090601f831160011462000cda5760009262000cce575b50508160011b916000199060031b1c19161760138201555b610320518051906001600160401b03821162000ae257601483015490600182811c9216801562000cc3575b602083101462000bc75781601f84931162000c6b575b50602090601f831160011462000bf45760009262000be8575b50508160011b916000199060031b1c19161760148201555b610340518051906001600160401b03821162000ae2576015830154600181811c9116801562000bdd575b602082101462000bc757601f811162000b77575b50602090601f831160011462000b0457601592916000918362000af8575b50508160011b916000199060031b1c1916179101555b60286040516741444d494e30303160c01b81526001600882015220600160ff198254161790556008546801000000000000000081101562000ae257600181018060085581101562000acc5760086000527ff3f7a9fe364faab93b216da50a3214154f22a0a2b415b23a84c8169e8b636ee30180546001600160a01b031916331790556040516153049081620018998239f35b634e487b7160e01b600052603260045260246000fd5b634e487b7160e01b600052604160045260246000fd5b01519050388062000a24565b90601f198316916015850160005260206000209260005b81811062000b5e5750916001939185601596941062000b44575b505050811b0191015562000a3a565b015160001960f88460031b161c1916905538808062000b35565b9293602060018192878601518155019501930162000b1b565b601584016000526020600020601f840160051c8101916020851062000bbc575b601f0160051c01905b81811062000baf575062000a06565b6000815560010162000ba0565b909150819062000b97565b634e487b7160e01b600052602260045260246000fd5b90607f1690620009f2565b015190503880620009b0565b9250601484016000526020600020906000935b601f198416851062000c4f576001945083601f1981161062000c35575b505050811b016014820155620009c8565b015160001960f88460031b161c1916905538808062000c24565b8181015183556020948501946001909301929091019062000c07565b909150601484016000526020600020601f840160051c81016020851062000cbb575b90849392915b601f830160051c8201811062000cab57505062000997565b6000815585945060010162000c93565b508062000c8d565b91607f169162000981565b0151905038806200093e565b9250601384016000526020600020906000935b601f198416851062000d35576001945083601f1981161062000d1b575b505050811b01601382015562000956565b015160001960f88460031b161c1916905538808062000d0a565b8181015183556020948501946001909301929091019062000ced565b909150601384016000526020600020601f840160051c81016020851062000da1575b90849392915b601f830160051c8201811062000d9157505062000925565b6000815585945060010162000d79565b508062000d73565b91607f16916200090f565b015190503880620008cc565b9250601284016000526020600020906000935b601f198416851062000e1b576001945083601f1981161062000e01575b505050811b016012820155620008e4565b015160001960f88460031b161c1916905538808062000df0565b8181015183556020948501946001909301929091019062000dd3565b909150601284016000526020600020601f840160051c81016020851062000e87575b90849392915b601f830160051c8201811062000e77575050620008b3565b6000815585945060010162000e5f565b508062000e59565b91607f16916200089d565b0151905038806200083f565b9250600e84016000526020600020906000935b601f198416851062000f01576001945083601f1981161062000ee7575b505050811b01600e82015562000857565b015160001960f88460031b161c1916905538808062000ed6565b8181015183556020948501946001909301929091019062000eb9565b909150600e84016000526020600020601f840160051c81016020851062000f6d575b90849392915b601f830160051c8201811062000f5d57505062000826565b6000815585945060010162000f45565b508062000f3f565b91607f169162000810565b015190503880620007cd565b9250600d84016000526020600020906000935b601f198416851062000fe7576001945083601f1981161062000fcd575b505050811b01600d820155620007e5565b015160001960f88460031b161c1916905538808062000fbc565b8181015183556020948501946001909301929091019062000f9f565b909150600d84016000526020600020601f840160051c81016020851062001053575b90849392915b601f830160051c8201811062001043575050620007b4565b600081558594506001016200102b565b508062001025565b91607f16916200079e565b0151905038806200075b565b9250600c84016000526020600020906000935b601f1984168510620010cd576001945083601f19811610620010b3575b505050811b01600c82015562000773565b015160001960f88460031b161c19169055388080620010a2565b8181015183556020948501946001909301929091019062001085565b909150600c84016000526020600020601f840160051c81016020851062001139575b90849392915b601f830160051c820181106200112957505062000742565b6000815585945060010162001111565b50806200110b565b91607f16916200072c565b015190503880620006e0565b9250600a84016000526020600020906000935b601f1984168510620011b3576001945083601f1981161062001199575b505050811b01600a820155620006f8565b015160001960f88460031b161c1916905538808062001188565b818101518355602094850194600190930192909101906200116b565b909150600a84016000526020600020601f840160051c8101602085106200121f575b90849392915b601f830160051c820181106200120f575050620006c7565b60008155859450600101620011f7565b5080620011f1565b91607f1691620006b1565b0151905038806200066e565b9250600984016000526020600020906000935b601f198416851062001299576001945083601f198116106200127f575b505050811b01600982015562000686565b015160001960f88460031b161c191690553880806200126e565b8181015183556020948501946001909301929091019062001251565b909150600984016000526020600020601f840160051c81016020851062001305575b90849392915b601f830160051c82018110620012f557505062000655565b60008155859450600101620012dd565b5080620012d7565b91607f16916200063f565b015190503880620005fc565b9250600884016000526020600020906000935b601f19841685106200137f576001945083601f1981161062001365575b505050811b01600882015562000614565b015160001960f88460031b161c1916905538808062001354565b8181015183556020948501946001909301929091019062001337565b909150600884016000526020600020601f840160051c810160208510620013eb575b90849392915b601f830160051c82018110620013db575050620005e3565b60008155859450600101620013c3565b5080620013bd565b91607f1691620005cd565b0151905038806200058a565b9250600784016000526020600020906000935b601f198416851062001465576001945083601f198116106200144b575b505050811b016007820155620005a2565b015160001960f88460031b161c191690553880806200143a565b818101518355602094850194600190930192909101906200141d565b909150600784016000526020600020601f840160051c810160208510620014d1575b90849392915b601f830160051c82018110620014c157505062000571565b60008155859450600101620014a9565b5080620014a3565b91607f16916200055b565b015190503880620004ce565b9250600384016000526020600020906000935b601f19841685106200154b576001945083601f1981161062001531575b505050811b016003820155620004e6565b015160001960f88460031b161c1916905538808062001520565b8181015183556020948501946001909301929091019062001503565b909150600384016000526020600020601f840160051c810160208510620015b7575b90849392915b601f830160051c82018110620015a7575050620004b5565b600081558594506001016200158f565b508062001589565b91607f16916200049f565b0151905038806200045d565b9250600284016000526020600020906000935b601f198416851062001631576001945083601f1981161062001617575b505050811b01600282015562000475565b015160001960f88460031b161c1916905538808062001606565b81810151835560209485019460019093019290910190620015e9565b909150600284016000526020600020601f840160051c8101602085106200169d575b90849392915b601f830160051c820181106200168d57505062000444565b6000815585945060010162001675565b50806200166f565b91607f16916200042e565b015190503880620003ec565b9250600184016000526020600020906000935b601f198416851062001717576001945083601f19811610620016fd575b505050811b01600182015562000404565b015160001960f88460031b161c19169055388080620016ec565b81810151835560209485019460019093019290910190620016cf565b909150600184016000526020600020601f840160051c81016020851062001783575b90849392915b601f830160051c8201811062001773575050620003d3565b600081558594506001016200175b565b508062001755565b91607f1691620003bd565b0151905038806200037e565b9250836000526020600020906000935b601f1984168510620017f7576001945083601f19811610620017dd575b505050811b01815562000393565b015160001960f88460031b161c19169055388080620017cf565b81810151835560209485019460019093019290910190620017b2565b909150836000526020600020601f840160051c81016020851062001860575b90849392915b601f830160051c820181106200185057505062000365565b6000815585945060010162001838565b508062001832565b91607f16916200034f565b600080fd5b60408051919082016001600160401b0381118382101762000ae25760405256fe610220604052600436101561001357600080fd5b60003560e01c8063153efe4714614e475780632501c16a14614df957806328bcb51a14614ddb57806338a7543e14614d9c5780633fc5b0bb14614b1f578063534a9e53146135a75780635b480459146135ac57806360e7bb0d146135a75780636383838d146134df578063742f06881461331c5780637843bb79146132985780637a8ee24b146132075780637df221e9146131ac5780637e0e46b714612d5657806382f7d39214612d17578063850c1768146129ff5780638da5cb5b146129d65780639111169814611a4d578063947ff32414611a03578063b37408b6146117f6578063b440983e146117c5578063ba3db38014610a03578063bedda47e146109d2578063bf88ec9a14610778578063c3934f0e14610720578063c6cbc52a146105ec578063d4085e3b1461032d578063e5ecc0c6146102ab578063e6093e30146101f45763ebc63bc01461016757600080fd5b346101ef576020806003193601126101ef576001600160a01b03610189614faa565b1660005260048152604060002090604051908181845491828152019360005281600020916000905b8282106101d8576101d4856101c881890382614f10565b604051918291826150e9565b0390f35b8354865294850194600193840193909101906101b1565b600080fd5b346101ef5760403660031901126101ef5761020d614faa565b60243590811515908183036101ef577f51ffa802f83de46ae1e7544c3077d428a21ad75bcb9ebf48c4919496f4fbcb01916102a260209260018060a01b039061025b82600754163314615178565b1694856000526002845261027660ff604060002054166151c8565b600086815280855260409020600401805460ff60a01b191691151560a01b60ff60a01b16919091179055565b604051908152a2005b346101ef5760003660031901126101ef57600080600854905b8181106102d657602083604051908152f35b6102df81614e89565b60018060a01b0391549060031b1c16600052600060205260ff60046040600020015460a01c16610318575b6103139061527b565b6102c4565b916103256103139161527b565b92905061030a565b346101ef5760203660031901126101ef576001600160a01b038061034f614faa565b1680600052600260205261036a60ff604060002054166151c8565b600052600060205260406000209060ff6040519161038783614ed8565b60405161039f816103988188615053565b0382614f10565b83526040516103b5816103988160018901615053565b60208401526040516103ce816103988160028901615053565b60408401526040516103e7816103988160038901615053565b60608401526004840154908116608084015260a01c16151560a0820152600582015460c0820152600682015460e082015260405161042c816103988160078701615053565b610100820152604051610446816103988160088701615053565b610120820152604051610460816103988160098701615053565b61014082015260405161047a8161039881600a8701615053565b610160820152600b820154906101808101918252604051916104aa836104a381600c8801615053565b0384614f10565b6101a08201928352604051936104ce856104c781600d8501615053565b0386614f10565b6101c083019485526105d8604051926104f5846104ee81600e8701615053565b0385614f10565b6101e085019384526105ca600f84015491610200870192835260156102c06010870154986102208101998a526105906011890154986102408301998a52604051610546816103988160128601615053565b610260840152604051610560816103988160138601615053565b61028084015260405161057a816103988160148601615053565b6102a08401526104a36040518096819301615053565b015251965197519451915195519351946105bc604051998a998a5260e060208b015260e08a0190614fd6565b9088820360408a0152614fd6565b908682036060880152614fd6565b92608085015260a084015260c08301520390f35b346101ef576020806003193601126101ef5760043590816000526003815261061d600660406000200154151561528a565b6000828152600382526040902060040154336001600160a01b0391821614908115610712575b50156106dd57816000526003815260ff600760406000200154166106a7577f1dbd7f0554a6447214abb6405781d5ee119037a7024fcb7fffd542c3c12cd7769082600052600381526007604060002001600160ff19825416179055604051338152a2005b6064906040519062461bcd60e51b82526004820152600f60248201526e105b1c9958591e481c995d9bdad959608a1b6044820152fd5b6064906040519062461bcd60e51b82526004820152600e60248201526d139bdd08185d5d1a1bdc9a5e995960921b6044820152fd5b905060075416331483610643565b346101ef5760403660031901126101ef57610739614faa565b6001600160a01b03166000908152600460205260409020805460243591908210156101ef5760209161076a91614ec0565b90546040519160031b1c8152f35b346101ef5760203660031901126101ef576001600160a01b038061079a614faa565b168060005260026020526107b560ff604060002054166151c8565b600052600060205260406000209060ff604051916107d283614ed8565b6040516107e3816103988188615053565b83526040516107f9816103988160018901615053565b6020840152604051610812816103988160028901615053565b604084015260405161082b816103988160038901615053565b60608401526004840154908116608084015260a01c16151560a0820152600582015460c0820152600682015460e0820152604051610870816103988160078701615053565b61010082015260405161088a816103988160088701615053565b6101208201526040516108a4816103988160098701615053565b6101408201526040516108be8161039881600a8701615053565b610160820152600b8201546101808201526040516108e38161039881600c8701615053565b6101a08201526040516108fd8161039881600d8701615053565b6101c08201526040516109178161039881600e8701615053565b6101e0820152600f820154610200820152601082015461022082015260118201546102408201526101d46104a3604051610958816103988160128901615053565b610260840190815260156102c0604051956109818761097a8160138c01615053565b0388614f10565b61028081019687526109bf604051986109a88a6109a18160148501615053565b038b614f10565b6102a08301998a5260405196878096819301615053565b015251925193516040519485948561513b565b346101ef5760203660031901126101ef576004356000526006602052602060ff604060002054166040519015158152f35b346101ef576101803660031901126101ef57610a1d614faa565b6024356001600160401b0381116101ef57610a3c903690600401614f31565b610120526044356001600160401b0381116101ef57610a5f903690600401614f31565b6064356001600160401b0381116101ef57610a7e903690600401614f31565b60e0526084356001600160401b0381116101ef57610aa0903690600401614f31565b60a4356001600160401b0381116101ef57610abf903690600401614f31565b9060c4356001600160401b0381116101ef57610adf903690600401614f31565b9060e4356001600160401b0381116101ef57610aff903690600401614f31565b610104356001600160401b0381116101ef57610b1f903690600401614f31565b610124356001600160401b0381116101ef57610b3f903690600401614f31565b90610144356001600160401b0381116101ef57610b60903690600401614f31565b926001600160401b0361016435116101ef57610b823661016435600401614f31565b9560018060a01b0397610b9a89600754163314615178565b888b166000526002602052610bb660ff604060002054166151c8565b888b16600052600060205260406000209661012051516001600160401b0381116110c757610be48954615019565b601f8111611793575b50806020601f821160011461172657600091611718575b508160011b916000199060031b1c19161788555b8a516001600160401b0381116110c757610c3560028a0154615019565b601f81116116e3575b50806020601f821160011461167357600091611668575b508160011b916000199060031b1c19161760028901555b60e051516001600160401b0381116110c757610c8b60038a0154615019565b601f8111611633575b50806020601f82116001146115bf576000916115b2575b508160011b916000199060031b1c19161760038901555b8051906001600160401b0382116110c7578190610ce260078b0154615019565b601f811161157d575b50602090601f831160011461150b57600092611500575b50508160011b916000199060031b1c19161760078801555b8051906001600160401b0382116110c7578190610d3a60088a0154615019565b601f81116114cb575b50602090601f83116001146114595760009261144e575b50508160011b916000199060031b1c19161760088701555b8051906001600160401b0382116110c7578190610d926009890154615019565b601f8111611419575b50602090601f83116001146113a75760009261139c575b50508160011b916000199060031b1c19161760098601555b8051906001600160401b0382116110c7578190610dea600a880154615019565b601f8111611367575b50602090601f83116001146112f5576000926112ea575b50508160011b916000199060031b1c191617600a8501555b8051906001600160401b0382116110c7578190610e42600d870154615019565b601f81116112b5575b50602090601f831160011461124357600092611238575b50508160011b916000199060031b1c191617600d8401555b8051906001600160401b0382116110c7578190610e9a600e860154615019565b601f8111611203575b50602090601f831160011461119157600092611186575b50508160011b916000199060031b1c191617600e8301555b80516001600160401b0381116110c7576012830191610ef18354615019565b601f8111611154575b50602090601f83116001146110e857601394939291600091836110dd575b50508160011b916000199060031b1c19161790555b01908051906001600160401b0382116110c757610f4a8354615019565b601f811161108a575b50602090601f8311600114610ff8579282610fe893610fd596937f5a0295f6e34cdd93d9af98bb61b0b8d8e031905b31dbd95f4181172b645d74119896600092610fed575b50508160011b916000199060031b1c19161790555b60405193849360608552610fc76060860161012051614fd6565b908582036020870152614fd6565b958387036040850152169460e051614fd6565b0390a2005b015190508980610f98565b90601f198316918460005260206000209260005b818110611072575093610fd596937f5a0295f6e34cdd93d9af98bb61b0b8d8e031905b31dbd95f4181172b645d741198969360019383610fe89810611059575b505050811b019055610fad565b015160001960f88460031b161c1916905589808061104c565b9293602060018192878601518155019501930161100c565b6110b790846000526020600020601f850160051c810191602086106110bd575b601f0160051c01906151b1565b86610f53565b90915081906110aa565b634e487b7160e01b600052604160045260246000fd5b015190508980610f18565b90601f198316918460005260206000209260005b81811061113c575091600193918560139897969410611123575b505050811b019055610f2d565b015160001960f88460031b161c19169055898080611116565b929360206001819287860151815501950193016110fc565b61118090846000526020600020601f850160051c810191602086106110bd57601f0160051c01906151b1565b88610efa565b015190508880610eba565b9250600e85016000526020600020906000935b601f19841685106111e8576001945083601f198116106111cf575b505050811b01600e830155610ed2565b015160001960f88460031b161c191690558880806111bf565b818101518355602094850194600190930192909101906111a4565b61123290600e87016000526020600020601f850160051c810191602086106110bd57601f0160051c01906151b1565b89610ea3565b015190508980610e62565b9250600d86016000526020600020906000935b601f198416851061129a576001945083601f19811610611281575b505050811b01600d840155610e7a565b015160001960f88460031b161c19169055898080611271565b81810151835560209485019460019093019290910190611256565b6112e490600d88016000526020600020601f850160051c810191602086106110bd57601f0160051c01906151b1565b8a610e4b565b015190508a80610e0a565b9250600a87016000526020600020906000935b601f198416851061134c576001945083601f19811610611333575b505050811b01600a850155610e22565b015160001960f88460031b161c191690558a8080611323565b81810151835560209485019460019093019290910190611308565b61139690600a89016000526020600020601f850160051c810191602086106110bd57601f0160051c01906151b1565b8b610df3565b015190508b80610db2565b9250600988016000526020600020906000935b601f19841685106113fe576001945083601f198116106113e5575b505050811b016009860155610dca565b015160001960f88460031b161c191690558b80806113d5565b818101518355602094850194600190930192909101906113ba565b6114489060098a016000526020600020601f850160051c810191602086106110bd57601f0160051c01906151b1565b8c610d9b565b015190508c80610d5a565b9250600889016000526020600020906000935b601f19841685106114b0576001945083601f19811610611497575b505050811b016008870155610d72565b015160001960f88460031b161c191690558c8080611487565b8181015183556020948501946001909301929091019061146c565b6114fa9060088b016000526020600020601f850160051c810191602086106110bd57601f0160051c01906151b1565b8d610d43565b015190508d80610d02565b925060078a016000526020600020906000935b601f1984168510611562576001945083601f19811610611549575b505050811b016007880155610d1a565b015160001960f88460031b161c191690558d8080611539565b8181015183556020948501946001909301929091019061151e565b6115ac9060078c016000526020600020601f850160051c810191602086106110bd57601f0160051c01906151b1565b8e610ceb565b905060e05101518e610cab565b915060038a01600052602060002060009260e0515b601f1984168510611618576001945083601f198116106115ff575b505050811b016003890155610cc2565b015160001960f88460031b161c191690558e80806115ef565b818101518355602094850194600190930192909101906115d4565b6116629060038b016000526020600020601f840160051c810191602085106110bd57601f0160051c01906151b1565b8d610c94565b90508c01518e610c55565b8d925060028b016000526020600020906000935b601f19841685106116cb576001945083601f198116106116b2575b505050811b016002890155610c6c565b015160001960f88460031b161c191690558e808e6116a2565b8101518255602093840193600190920191018e611687565b6117129060028b016000526020600020601f840160051c810191602085106110bd57601f0160051c01906151b1565b8d610c3e565b90506101205101518e610c04565b9050896000526020600020906000601f19841661012051915b81811061177b5750908460019594939210611762575b505050811b018855610c18565b015160001960f88460031b161c191690558e8080611755565b9293602060018192878601518155019501930161173f565b6117bf908a6000526020600020601f840160051c810191602085106110bd57601f0160051c01906151b1565b8d610bed565b346101ef5760203660031901126101ef57600435600052600360205260206006604060002001541515604051908152f35b346101ef5760203660031901126101ef576001600160a01b0380611818614faa565b1680600052600260205261183360ff604060002054166151c8565b6000526000602052604060002060ff6040519261184f84614ed8565b604051611860816103988187615053565b8452604051611876816103988160018801615053565b602085015260405161188f816103988160028801615053565b60408501526040516118a8816103988160038801615053565b60608501526004830154908116608085015260a01c16151560a0830152600581015460c0830152600681015460e08301526101d4604051916118f1836104a38160078501615053565b61010084019283526040519261190e846104ee8160088601615053565b610120850193845260156102c060405196611937886119308160098901615053565b0389614f10565b61014081019788526119ed604051956119578761097a81600a8501615053565b6101608301968752600b81015461018084015260405161197e8161039881600c8601615053565b6101a08401526040516119988161039881600d8601615053565b6101c08401526040516119b28161039881600e8601615053565b6101e0840152600f81015461020084015260108101546102208401526011810154610240840152604051610546816103988160128601615053565b015251925193519051906040519485948561513b565b346101ef5760403660031901126101ef57611a1c614faa565b6001600160a01b03166000908152600560205260409020805460243591908210156101ef5760209161076a91614ec0565b346101ef576101403660031901126101ef576004356001600160401b0381116101ef57611a7e903690600401614f31565b6024356001600160401b0381116101ef57611a9d903690600401614f31565b6044356001600160401b0381116101ef57611abc903690600401614f31565b90611ac5614fc0565b9160a4356001600160401b0381116101ef57611ae5903690600401614f31565b9060c4356001600160401b0381116101ef57611b05903690600401614f31565b610104356001600160401b0381116101ef57611b25903690600401614f31565b6001600160401b0361012435116101ef57366023610124350112156101ef57611b546101243560040135615124565b91611b626040519384614f10565b6101243560040135835260208301366024610124356004013560051b610124350101116101ef5760246101243501905b6024610124356004013560051b61012435010182106129a5575050336000526002602052611bc760ff6040600020541661520a565b33600052600060205260ff60046040600020015460a01c16156129695787511561292c578551156128f557606435156128bc576001600160a01b0387161561287e57604051946064356020870152602086528560408101106001600160401b036040880111176110c75760408601604052855160208701209586600052600660205260ff604060002054166128435750336000526000602052610398611cbb604060002060405197611c7889614ef4565b8c89528a60208a01526040890152606435606089015233608089015260018060a01b038b1660a08901524260c0890152600060e089015260405192838092615053565b61010086015261012085015261014084015260e4356101608401526101808301526101a0820152606435600052600360205260406000209080518051906001600160401b0382116110c7578190611d128554615019565b601f8111612811575b50602090601f83116001146127a55760009261279a575b50508160011b916000199060031b1c19161782555b60208101518051906001600160401b0382116110c7578190611d6c6001860154615019565b601f8111612765575b50602090601f83116001146126f3576000926126e8575b50508160011b916000199060031b1c19161760018301555b60408101518051906001600160401b0382116110c7578190611dc96002860154615019565b601f81116126b3575b50602090601f831160011461264157600092612636575b50508160011b916000199060031b1c19161760028301555b6060810151600383015560018060a01b036080820151166bffffffffffffffffffffffff60a01b6004840154161760048301556005820160018060a01b0360a0830151166bffffffffffffffffffffffff60a01b82541617905560c081015160068301556007820160e0820151151560ff801983541691161790556101008101518051906001600160401b0382116110c7578190611ea26008860154615019565b601f8111612601575b50602090601f831160011461258f57600092612584575b50508160011b916000199060031b1c19161760088301555b6101208101518051906001600160401b0382116110c7578190611f006009860154615019565b601f811161254f575b50602090601f83116001146124dd576000926124d2575b50508160011b916000199060031b1c19161760098301555b6101408101518051906001600160401b0382116110c7578190611f5e600a860154615019565b601f811161249d575b50602090601f831160011461242b57600092612420575b50508160011b916000199060031b1c191617600a8301555b610160810151600b83015561018081015180516001600160401b0381116110c757600c840191611fc68354615019565b601f81116123ee575b50602090601f8311600114612381576101a09493929160009183612376575b50508160011b916000199060031b1c19161790555b0151805190600160401b82116110c757600d83015482600d8501558083106122fe575b506020600d910192016000526020600020916000905b8282106121e9575050505060018060a01b03831660005260046020526120686064356040600020615246565b3360005260056020526120816064356040600020615246565b336000526000602052600660406000200161209c815461527b565b905560005260066020526040600020600160ff1982541617905560018060a01b038216600052600a6020526040600020805460ff81161561216a575b50503360005260006020527f61b97a1433ae317d29484d5a9b176ba5a14cf04e1e20b3c08493a5773b05921f61213060406000209261212260405196608088526080880190614fd6565b908682036020880152614fd6565b42604086015284810360608601526001600160a01b0390931693339360643593829161215b91615053565b0390a460206040516064358152f35b60ff19166001179055600954600160401b8110156110c75760018101806009558110156121d3577f6e1540171b6c0c960b71a7020d9f60077f6af931a8bbf590da0223dacf75c7af0180546001600160a01b0319166001600160a01b03841617905583806120d8565b634e487b7160e01b600052603260045260246000fd5b80518051906001600160401b0382116110c7576122068654615019565b601f81116122cc575b50602090601f831160011461225c579282600194936020938695600092612251575b5050600019600383901b1c191690841b1787555b0194019101909261203c565b015190508d80612231565b908660005260206000209160005b601f19851681106122b4575083602093600196938796938794601f1981161061229b575b505050811b018755612245565b015160001960f88460031b161c191690558d808061228e565b9192602060018192868501518155019401920161226a565b6122f890876000526020600020601f850160051c810191602086106110bd57601f0160051c01906151b1565b8a61220f565b600d84016000526020600020908382015b818301811061231f575050612026565b8061232c60019254615019565b80612339575b500161230f565b601f8111831461234f5750600081555b8b612332565b60009082825261236d601f60208420920160051c82018583016151b1565b81835555612349565b015190508a80611fee565b90601f198316918460005260206000209260005b8181106123d657509160019391856101a098979694106123bd575b505050811b019055612003565b015160001960f88460031b161c191690558a80806123b0565b92936020600181928786015181550195019301612395565b61241a90846000526020600020601f850160051c810191602086106110bd57601f0160051c01906151b1565b89611fcf565b015190508880611f7e565b9250600a85016000526020600020906000935b601f1984168510612482576001945083601f19811610612469575b505050811b01600a830155611f96565b015160001960f88460031b161c19169055888080612459565b8181015183556020948501946001909301929091019061243e565b6124cc90600a87016000526020600020601f850160051c810191602086106110bd57601f0160051c01906151b1565b89611f67565b015190508880611f20565b9250600985016000526020600020906000935b601f1984168510612534576001945083601f1981161061251b575b505050811b016009830155611f38565b015160001960f88460031b161c1916905588808061250b565b818101518355602094850194600190930192909101906124f0565b61257e90600987016000526020600020601f850160051c810191602086106110bd57601f0160051c01906151b1565b89611f09565b015190508880611ec2565b9250600885016000526020600020906000935b601f19841685106125e6576001945083601f198116106125cd575b505050811b016008830155611eda565b015160001960f88460031b161c191690558880806125bd565b818101518355602094850194600190930192909101906125a2565b61263090600887016000526020600020601f850160051c810191602086106110bd57601f0160051c01906151b1565b89611eab565b015190508880611de9565b9250600285016000526020600020906000935b601f1984168510612698576001945083601f1981161061267f575b505050811b016002830155611e01565b015160001960f88460031b161c1916905588808061266f565b81810151835560209485019460019093019290910190612654565b6126e290600287016000526020600020601f850160051c810191602086106110bd57601f0160051c01906151b1565b89611dd2565b015190508880611d8c565b9250600185016000526020600020906000935b601f198416851061274a576001945083601f19811610612731575b505050811b016001830155611da4565b015160001960f88460031b161c19169055888080612721565b81810151835560209485019460019093019290910190612706565b61279490600187016000526020600020601f850160051c810191602086106110bd57601f0160051c01906151b1565b89611d75565b015190508880611d32565b9250846000526020600020906000935b601f19841685106127f6576001945083601f198116106127dd575b505050811b018255611d47565b015160001960f88460031b161c191690558880806127d0565b818101518355602094850194600190930192909101906127b5565b61283d90866000526020600020601f850160051c810191602086106110bd57601f0160051c01906151b1565b89611d1b565b604060649162461bcd60e51b82820152602060448201526012838201527143657274696669636174652065786973747360701b608482015201fd5b60405162461bcd60e51b8152602060048201526016602482015275125b9d985b1a59081cdd1d59195b9d081dd85b1b195d60521b6044820152606490fd5b60405162461bcd60e51b8152602060048201526011602482015270092dcecc2d8d2c840ccd2d8ca40d0c2e6d607b1b6044820152606490fd5b60405162461bcd60e51b815260206004820152600f60248201526e10dbdd5c9cd9481c995c5d5a5c9959608a1b6044820152606490fd5b60405162461bcd60e51b815260206004820152601560248201527414dd1d59195b9d081b985b59481c995c5d5a5c9959605a1b6044820152606490fd5b60405162461bcd60e51b8152602060048201526014602482015273496e73746974757465206e6f742061637469766560601b6044820152606490fd5b6001600160401b038235116101ef57602080916129cb3660248635610124350101614f31565b815201910190611b92565b346101ef5760003660031901126101ef576007546040516001600160a01b039091168152602090f35b346101ef5760203660031901126101ef57600435806000526003602052612a2f600660406000200154151561528a565b6000526003602052604060002060405190612a4982614ef4565b604051612a5a816103988185615053565b8252604051612a70816103988160018601615053565b6020830152604051612a89816103988160028601615053565b6040838101919091526003820154606084015260048201546001600160a01b03908116608085015260058301541660a0840152600682015460c0840152600782015460ff16151560e084015251612ae7816103988160088601615053565b610100830152604051612b01816103988160098601615053565b610120830152604051612b1b8161039881600a8601615053565b610140830152600b810154610160830152604051612b408161039881600c8601615053565b610180830152600d810154612b5481615124565b90612b626040519283614f10565b80825260208201600d81940160005260206000206000915b838310612cf257868587816101a0840152825191602084015192604085015194606081015191600160a01b6001900360808301511690600160a01b6001900360a0840151169060c08401519060e08501511515610100860151926101208701519461014088015196610160890151986101800151996040519e8f9e8f976101c0808a528901612c0891614fd6565b88810360208a0152612c1991614fd6565b8781036040890152612c2a91614fd6565b956060015260808d015260a08c015260c08b015260e08a01528881036101008a0152612c5591614fd6565b878103610120890152612c6791614fd6565b868103610140880152612c7991614fd6565b90610160860152848103610180860152612c9291614fd6565b908382036101a08501525180825260208201918160051b810160200193926000915b838310612cc15786860387f35b919395509193602080612ce0600193601f198682030187528951614fd6565b97019301930190928695949293612cb4565b600160208192604051612d09816103988189615053565b815201920192019190612b7a565b346101ef5760203660031901126101ef576001600160a01b03612d38614faa565b16600052600a602052602060ff604060002054166040519015158152f35b346101ef5760203660031901126101ef576001600160a01b03612d77614faa565b16600052600060205260406000208061018052604051612d98818093615053565b03612da39082614f10565b6040518060a052806101805160010190612dbc91615053565b0360a05190612dca91614f10565b604051806101c052806101805160020190612de491615053565b036101c05190612df391614f10565b60405180806101805160030190612e0991615053565b03612e149082614f10565b61018051600481015460058201549160068101549060405180600781930190612e3c91615053565b03612e479082614f10565b60405180806101805160080190612e5d91615053565b03612e689082614f10565b6040519081806101805160090190612e7f91615053565b03612e8a9083614f10565b60405192838061018051600a0190612ea191615053565b03612eac9085614f10565b6101805195600b8701549560405180600c819a0190612eca91615053565b03612ed59089614f10565b60405198898061018051600d0190612eec91615053565b03612ef7908b614f10565b6040519a8b8061018051600e0190612f0e91615053565b03612f19908d614f10565b610180519c8d600f8101546101a052601001549d6011810154610160526040518091816101405260120190612f4d91615053565b036101405190612f5c91614f10565b6040518061010052806101805160130190612f7691615053565b036101005190612f8591614f10565b60405180608052806101805160140190612f9e91615053565b0360805190612fac91614f10565b604051806101e052806101805160150190612fc691615053565b036101e05190612fd591614f10565b60405180610200526102e08091526102005101612ff191614fd6565b61020051808203906020015260a0519061300a91614fd6565b6102005180820390604001526101c0519061302491614fd6565b61020051808203906060015261303991614fd6565b92600160a01b600190038116610200516080015260a01c60ff1615156102005160a001526102005160c001526102005160e001526102005180820390610100015261308391614fd6565b6102005180820390610120015261309991614fd6565b610200518082039061014001526130af91614fd6565b610200518082039061016001526130c591614fd6565b9061020051610180015261020051808203906101a001526130e591614fd6565b61020051808203906101c001526130fb91614fd6565b61020051808203906101e0015261311191614fd6565b906101a0516102005161020001526102005161022001526101605161020051610240015261020051808203906102600152610140519061315091614fd6565b61020051808203906102800152610100519061316b91614fd6565b61020051808203906102a001526080519061318591614fd6565b61020051808203906102c0015261020051906101e051906131a591614fd6565b0361020051f35b346101ef5760203660031901126101ef576004356009548110156101ef5760096000527f6e1540171b6c0c960b71a7020d9f60077f6af931a8bbf590da0223dacf75c7af01546040516001600160a01b039091168152602090f35b346101ef576020806003193601126101ef576001600160a01b03613229614faa565b16806000526002825261324360ff6040600020541661520a565b60005260058152604060002090604051908181845491828152019360005281600020916000905b828210613281576101d4856101c881890382614f10565b83548652948501946001938401939091019061326a565b346101ef5760003660031901126101ef576000806008545b8083106132c257602082604051908152f35b906132cc83614e89565b60018060a01b0391549060031b1c1660005260006020526006604060002001548101809111613306576132ff909261527b565b91906132b0565b634e487b7160e01b600052601160045260246000fd5b346101ef5760203660031901126101ef57600435600052600360205260406000206040518061334b8184615053565b036133569082614f10565b60405191826133688160018401615053565b036133739084614f10565b604051806133848160028501615053565b0361338f9082614f10565b600382015460048301546005840154600685015460078601546040516001600160a01b039485169594909316939160ff90911690836133d18160088b01615053565b036133dc9085614f10565b60405194856133ee8160098c01615053565b036133f99087614f10565b604051968761340b81600a8d01615053565b036134169089614f10565b600b8a01549860405180600c819d019061342f91615053565b0361343a908c614f10565b6040519c8d9c8d6101a0908181520161345291614fd6565b8d810360208f015261346391614fd6565b8c810360408e015261347491614fd6565b9460608c015260808b015260a08a015260c0890152151560e08801528681036101008801526134a291614fd6565b8581036101208701526134b491614fd6565b8481036101408601526134c691614fd6565b906101608401528281036101808401526101d491614fd6565b346101ef5760003660031901126101ef57604051806008548083526020809301809160086000527ff3f7a9fe364faab93b216da50a3214154f22a0a2b415b23a84c8169e8b636ee39060005b8682821061358a57868661354182880383614f10565b604051928392818401908285525180915260408401929160005b82811061356a57505050500390f35b83516001600160a01b03168552869550938101939281019260010161355b565b83546001600160a01b03168552909301926001928301920161352b565b614ffb565b346101ef576102803660031901126101ef576004356001600160401b0381116101ef576135dd903690600401614f31565b6024356001600160401b0381116101ef576135fc903690600401614f31565b906044356001600160401b0381116101ef5761361c903690600401614f31565b916064356001600160401b0381116101ef5761363c903690600401614f31565b92613645614fc0565b9360a4356001600160401b0381116101ef57613665903690600401614f31565b60c4356001600160401b0381116101ef57613684903690600401614f31565b60e4356001600160401b0381116101ef576136a3903690600401614f31565b610104356001600160401b0381116101ef576136c3903690600401614f31565b610144356001600160401b0381116101ef576136e3903690600401614f31565b610164356001600160401b0381116101ef57613703903690600401614f31565b91610184356001600160401b0381116101ef57613724903690600401614f31565b93610204356001600160401b0381116101ef57613745903690600401614f31565b95610224356001600160401b0381116101ef57613766903690600401614f31565b976001600160401b0361024435116101ef576137883661024435600401614f31565b996001600160401b0361026435116101ef578c9b60ff6137dc60206137b33661026435600401614f31565b9f6137c960018060a01b03600754163314615178565b8160405193828580945193849201614f87565b6001818301528101030190205416614ae4578f60018060a01b0316600052600260205260ff60406000205416614a9f578e5115614a6a578e6138236040518060c052614ed8565b60c051528d602060c0510152604060c0510152606060c05101528d60018060a01b0316608060c0510152600160a060c05101524260c080510152600060e060c051015261010060c051015261012060c051015261014060c051015261016060c05101526101243561018060c05101526101a060c05101526101c060c05101526101e060c05101526101a43561020060c05101526101c43561022060c05101526101e43561024060c051015261026060c051015261028060c05101526102a060c05101526102c060c051015260018060a01b0383166000526000602052604060002060c051518051906001600160401b0382116110c75781906139258454615019565b601f8111614a38575b50602090601f83116001146149cc576000926149c1575b50508160011b916000199060031b1c19161781555b602060c05101518051906001600160401b0382116110c75781906139816001850154615019565b601f811161498c575b50602090601f831160011461491a5760009261490f575b50508160011b916000199060031b1c19161760018201555b604060c05101518051906001600160401b0382116110c75781906139e06002850154615019565b601f81116148da575b50602090601f83116001146148685760009261485d575b50508160011b916000199060031b1c19161760028201555b606060c05101518051906001600160401b0382116110c7578190613a3f6003850154615019565b601f8111614828575b50602090601f83116001146147b6576000926147ab575b50508160011b916000199060031b1c19161760038201555b60c051608081015160048301805460a08085015160ff60a01b90151590911b166001600160a01b039093166001600160a81b0319909116179190911790556101009060c0810151600584015560e0810151600684015501518051906001600160401b0382116110c7578190613aef6007850154615019565b601f8111614776575b50602090601f8311600114614704576000926146f9575b50508160011b916000199060031b1c19161760078201555b61012060c05101518051906001600160401b0382116110c7578190613b4f6008850154615019565b601f81116146c4575b50602090601f831160011461465257600092614647575b50508160011b916000199060031b1c19161760088201555b61014060c05101518051906001600160401b0382116110c7578190613baf6009850154615019565b601f8111614612575b50602090601f83116001146145a057600092614595575b50508160011b916000199060031b1c19161760098201555b61016060c05101518051906001600160401b0382116110c7578190613c0f600a850154615019565b601f8111614560575b50602090601f83116001146144ee576000926144e3575b50508160011b916000199060031b1c191617600a8201555b6101a060c051610180810151600b84015501518051906001600160401b0382116110c7578190613c7a600c850154615019565b601f81116144ae575b50602090601f831160011461443c57600092614431575b50508160011b916000199060031b1c191617600c8201555b6101c060c05101518051906001600160401b0382116110c7578190613cda600d850154615019565b601f81116143fc575b50602090601f831160011461438a5760009261437f575b50508160011b916000199060031b1c191617600d8201555b6101e060c05101518051906001600160401b0382116110c7578190613d3a600e850154615019565b601f811161434a575b50602090601f83116001146142d8576000926142cd575b50508160011b916000199060031b1c191617600e8201555b61026060c051610200810151600f8401556102208101516010840155610240810151601184015501518051906001600160401b0382116110c7578190613dbb6012850154615019565b601f8111614298575b50602090601f83116001146142265760009261421b575b50508160011b916000199060031b1c19161760128201555b61028060c05101518051906001600160401b0382116110c7578190613e1b6013850154615019565b601f81116141e6575b50602090601f831160011461417457600092614169575b50508160011b916000199060031b1c19161760138201555b6102a060c05101518051906001600160401b0382116110c7578190613e7b6014850154615019565b601f8111614134575b50602090601f83116001146140c2576000926140b7575b50508160011b916000199060031b1c19161760148201555b6102c060c05101518051906001600160401b0382116110c757613ed96015840154615019565b601f8111614082575b50602090601f8311600114614012576015929160009183614007575b50508160011b916000199060031b1c1916179101555b60018060a01b0383166000526002602052604060002060ff199060018282541617905560016040516020818551613f4e8183858a01614f87565b8101848152030190209182541617905560085491600160401b8310156110c757613fe7613fd992613fa68560017ff3b72ce3dcc424244158935955df9b016651708b034baf3af4cdb4ce4f4394309701600855614e89565b81546001600160a01b0389811660039390931b92831b921b19161790556040516060808252909485949091850190614fd6565b908382036020850152614fd6565b4260408301526001600160a01b03909416930390a2602060405160018152f35b015190508780613efe565b906015840160005260206000209160005b601f198516811061406a5750918391600193601595601f19811610614051575b505050811b01910155613f14565b015160001960f88460031b161c19169055878080614043565b91926020600181928685015181550194019201614023565b6140b190601585016000526020600020601f850160051c810191602086106110bd57601f0160051c01906151b1565b86613ee2565b015190508680613e9b565b9250601484016000526020600020906000935b601f1984168510614119576001945083601f19811610614100575b505050811b016014820155613eb3565b015160001960f88460031b161c191690558680806140f0565b818101518355602094850194600190930192909101906140d5565b61416390601486016000526020600020601f850160051c810191602086106110bd57601f0160051c01906151b1565b87613e84565b015190508680613e3b565b9250601384016000526020600020906000935b601f19841685106141cb576001945083601f198116106141b2575b505050811b016013820155613e53565b015160001960f88460031b161c191690558680806141a2565b81810151835560209485019460019093019290910190614187565b61421590601386016000526020600020601f850160051c810191602086106110bd57601f0160051c01906151b1565b87613e24565b015190508680613ddb565b9250601284016000526020600020906000935b601f198416851061427d576001945083601f19811610614264575b505050811b016012820155613df3565b015160001960f88460031b161c19169055868080614254565b81810151835560209485019460019093019290910190614239565b6142c790601286016000526020600020601f850160051c810191602086106110bd57601f0160051c01906151b1565b87613dc4565b015190508680613d5a565b9250600e84016000526020600020906000935b601f198416851061432f576001945083601f19811610614316575b505050811b01600e820155613d72565b015160001960f88460031b161c19169055868080614306565b818101518355602094850194600190930192909101906142eb565b61437990600e86016000526020600020601f850160051c810191602086106110bd57601f0160051c01906151b1565b87613d43565b015190508680613cfa565b9250600d84016000526020600020906000935b601f19841685106143e1576001945083601f198116106143c8575b505050811b01600d820155613d12565b015160001960f88460031b161c191690558680806143b8565b8181015183556020948501946001909301929091019061439d565b61442b90600d86016000526020600020601f850160051c810191602086106110bd57601f0160051c01906151b1565b87613ce3565b015190508680613c9a565b9250600c84016000526020600020906000935b601f1984168510614493576001945083601f1981161061447a575b505050811b01600c820155613cb2565b015160001960f88460031b161c1916905586808061446a565b8181015183556020948501946001909301929091019061444f565b6144dd90600c86016000526020600020601f850160051c810191602086106110bd57601f0160051c01906151b1565b87613c83565b015190508680613c2f565b9250600a84016000526020600020906000935b601f1984168510614545576001945083601f1981161061452c575b505050811b01600a820155613c47565b015160001960f88460031b161c1916905586808061451c565b81810151835560209485019460019093019290910190614501565b61458f90600a86016000526020600020601f850160051c810191602086106110bd57601f0160051c01906151b1565b87613c18565b015190508680613bcf565b9250600984016000526020600020906000935b601f19841685106145f7576001945083601f198116106145de575b505050811b016009820155613be7565b015160001960f88460031b161c191690558680806145ce565b818101518355602094850194600190930192909101906145b3565b61464190600986016000526020600020601f850160051c810191602086106110bd57601f0160051c01906151b1565b87613bb8565b015190508680613b6f565b9250600884016000526020600020906000935b601f19841685106146a9576001945083601f19811610614690575b505050811b016008820155613b87565b015160001960f88460031b161c19169055868080614680565b81810151835560209485019460019093019290910190614665565b6146f390600886016000526020600020601f850160051c810191602086106110bd57601f0160051c01906151b1565b87613b58565b015190508680613b0f565b9250600784016000526020600020906000935b601f198416851061475b576001945083601f19811610614742575b505050811b016007820155613b27565b015160001960f88460031b161c19169055868080614732565b81810151835560209485019460019093019290910190614717565b6147a590600786016000526020600020601f850160051c810191602086106110bd57601f0160051c01906151b1565b87613af8565b015190508680613a5f565b9250600384016000526020600020906000935b601f198416851061480d576001945083601f198116106147f4575b505050811b016003820155613a77565b015160001960f88460031b161c191690558680806147e4565b818101518355602094850194600190930192909101906147c9565b61485790600386016000526020600020601f850160051c810191602086106110bd57601f0160051c01906151b1565b87613a48565b015190508680613a00565b9250600284016000526020600020906000935b601f19841685106148bf576001945083601f198116106148a6575b505050811b016002820155613a18565b015160001960f88460031b161c19169055868080614896565b8181015183556020948501946001909301929091019061487b565b61490990600286016000526020600020601f850160051c810191602086106110bd57601f0160051c01906151b1565b876139e9565b0151905086806139a1565b9250600184016000526020600020906000935b601f1984168510614971576001945083601f19811610614958575b505050811b0160018201556139b9565b015160001960f88460031b161c19169055868080614948565b8181015183556020948501946001909301929091019061492d565b6149bb90600186016000526020600020601f850160051c810191602086106110bd57601f0160051c01906151b1565b8761398a565b015190508680613945565b9250836000526020600020906000935b601f1984168510614a1d576001945083601f19811610614a04575b505050811b01815561395a565b015160001960f88460031b161c191690558680806149f7565b818101518355602094850194600190930192909101906149dc565b614a6490856000526020600020601f850160051c810191602086106110bd57601f0160051c01906151b1565b8761392e565b60405162461bcd60e51b815260206004820152600d60248201526c13985b59481c995c5d5a5c9959609a1b6044820152606490fd5b60405162461bcd60e51b815260206004820152601960248201527f57616c6c657420616c72656164792072656769737465726564000000000000006044820152606490fd5b60405162461bcd60e51b8152602060048201526013602482015272496e737469747574652049442065786973747360681b6044820152606490fd5b346101ef5760203660031901126101ef57614d8e6001600160a01b0380614b44614faa565b16806000526002602052614b5f60ff604060002054166151c8565b600052600060205260406000209060405190614b7a82614ed8565b604051614b8b816103988187615053565b825260405192614ba2846104ee8160018501615053565b602083019384526105d860405192614bc1846104ee8160028701615053565b604085019384526105ca604051614bdf816103988160038901615053565b606087019081526004850154928316608088015260ff60a088019360a01c16151583526105bc60058601549760c081019889526015614d6460068901549860e08401998a52604051614c38816103988160078601615053565b610100850152604051614c52816103988160088601615053565b610120850152604051614c6c816103988160098601615053565b610140850152604051614c868161039881600a8601615053565b610160850152600b810154610180850152604051614cab8161039881600c8601615053565b6101a0850152604051614cc58161039881600d8601615053565b6101c0850152604051614cdf8161039881600e8601615053565b6101e0850152600f81015461020085015260108101546102208501526011810154610240850152604051614d1a816103988160128601615053565b610260850152604051614d34816103988160138601615053565b610280850152604051614d4e816103988160148601615053565b6102a08501526103986040518094819301615053565b6102c0820152519851965191519351151597519551966040519a8b9a60e08c5260e08c0190614fd6565b908a820360208c0152614fd6565b346101ef5760203660031901126101ef576001600160a01b03614dbd614faa565b166000526002602052602060ff604060002054166040519015158152f35b346101ef5760003660031901126101ef576020600954604051908152f35b346101ef5760203660031901126101ef576004356001600160401b0381116101ef5760ff614e3160206137c981943690600401614f31565b8101600181520301902054166040519015158152f35b346101ef5760203660031901126101ef576004356008548110156101ef57614e70602091614e89565b905460405160039290921b1c6001600160a01b03168152f35b6008548110156121d35760086000527ff3f7a9fe364faab93b216da50a3214154f22a0a2b415b23a84c8169e8b636ee30190600090565b80548210156121d35760005260206000200190600090565b6102e081019081106001600160401b038211176110c757604052565b6101c081019081106001600160401b038211176110c757604052565b90601f801991011681019081106001600160401b038211176110c757604052565b81601f820112156101ef578035906001600160401b0382116110c75760405192614f65601f8401601f191660200185614f10565b828452602083830101116101ef57816000926020809301838601378301015290565b60005b838110614f9a5750506000910152565b8181015183820152602001614f8a565b600435906001600160a01b03821682036101ef57565b608435906001600160a01b03821682036101ef57565b90602091614fef81518092818552858086019101614f87565b601f01601f1916010190565b346101ef5760003660031901126101ef576020600854604051908152f35b90600182811c92168015615049575b602083101461503357565b634e487b7160e01b600052602260045260246000fd5b91607f1691615028565b906000929180549161506483615019565b9182825260019384811690816000146150c65750600114615086575b50505050565b90919394506000526020928360002092846000945b8386106150b2575050505001019038808080615080565b80548587018301529401938590820161509b565b9294505050602093945060ff191683830152151560051b01019038808080615080565b6020908160408183019282815285518094520193019160005b828110615110575050505090565b835185529381019392810192600101615102565b6001600160401b0381116110c75760051b60200190565b92615159615175959361212261516794608088526080880190614fd6565b908482036040860152614fd6565b916060818403910152614fd6565b90565b1561517f57565b60405162461bcd60e51b815260206004820152600a60248201526927b7363c9037bbb732b960b11b6044820152606490fd5b8181106151bc575050565b600081556001016151b1565b156151cf57565b60405162461bcd60e51b8152602060048201526013602482015272125b9cdd1a5d1d5d19481b9bdd08199bdd5b99606a1b6044820152606490fd5b1561521157565b60405162461bcd60e51b815260206004820152600d60248201526c2737ba1030b71034b9b9bab2b960991b6044820152606490fd5b8054600160401b8110156110c75761526391600182018155614ec0565b819291549060031b91821b91600019901b1916179055565b60001981146133065760010190565b1561529157565b60405162461bcd60e51b815260206004820152601560248201527410d95c9d1a599a58d85d19481b9bdd08199bdd5b99605a1b6044820152606490fdfea2646970667358221220eb14a3e0cc0e6cb8f0c20da57c99d4aa9839f2368b79c0ec4fb3ebcc30f0b83464736f6c63430008140033",
  "linkReferences": {},
  "deployedLinkReferences": {}
}