{
  "_format": "hh-sol-artifact-1",
  "contractName": "CertificateStorage",
  "sourceName": "contracts/CertificateStorage.sol",
  "abi": [
    {
      "inputs": [],
      "stateMutability": "nonpayable",
      "type": "constructor"
    },
    {
      "anonymous": false,
      "inputs": [
        {
          "indexed": true,
          "internalType": "bytes32",
          "name": "certificateId",
          "type": "bytes32"
        },
        {
          "indexed": false,
          "internalType": "string",
          "name": "studentName",
          "type": "string"
        },
        {
          "indexed": false,
          "internalType": "string",
          "name": "course",
          "type": "string"
        },
        {
          "indexed": true,
          "internalType": "address",
          "name": "issuer",
          "type": "address"
        },
        {
          "indexed": true,
          "internalType": "address",
          "name": "student",
          "type": "address"
        },
        {
          "indexed": false,
          "internalType": "uint256",
          "name": "timestamp",
          "type": "uint256"
        },
        {
          "indexed": false,
          "internalType": "string",
          "name": "instituteName",
          "type": "string"
        }
      ],
      "name": "CertificateIssued",
      "type": "event"
    },
    {
      "anonymous": false,
      "inputs": [
        {
          "indexed": true,
          "internalType": "bytes32",
          "name": "certificateId",
          "type": "bytes32"
        },
        {
          "indexed": false,
          "internalType": "address",
          "name": "revokedBy",
          "type": "address"
        }
      ],
      "name": "CertificateRevoked",
      "type": "event"
    },
    {
      "anonymous": false,
      "inputs": [
        {
          "indexed": true,
          "internalType": "address",
          "name": "institute",
          "type": "address"
        },
        {
          "indexed": false,
          "internalType": "string",
          "name": "name",
          "type": "string"
        }
      ],
      "name": "InstituteRegistered",
      "type": "event"
    },
    {
      "anonymous": false,
      "inputs": [
        {
          "indexed": true,
          "internalType": "address",
          "name": "institute",
          "type": "address"
        },
        {
          "indexed": false,
          "internalType": "bool",
          "name": "active",
          "type": "bool"
        }
      ],
      "name": "InstituteStatusUpdated",
      "type": "event"
    },
    {
      "inputs": [
        {
          "internalType": "string[]",
          "name": "_studentNames",
          "type": "string[]"
        },
        {
          "internalType": "string[]",
          "name": "_courses",
          "type": "string[]"
        },
        {
          "internalType": "string[]",
          "name": "_ipfsHashes",
          "type": "string[]"
        },
        {
          "internalType": "bytes32[]",
          "name": "_fileHashes",
          "type": "bytes32[]"
        },
        {
          "internalType": "address[]",
          "name": "_studentWallets",
          "type": "address[]"
        },
        {
          "internalType": "string[]",
          "name": "_studentIds",
          "type": "string[]"
        },
        {
          "internalType": "string[]",
          "name": "_grades",
          "type": "string[]"
        },
        {
          "internalType": "uint256[]",
          "name": "_credits",
          "type": "uint256[]"
        },
        {
          "internalType": "string[]",
          "name": "_durations",
          "type": "string[]"
        },
        {
          "internalType": "string[][]",
          "name": "_skills",
          "type": "string[][]"
        }
      ],
      "name": "batchIssueCertificates",
      "outputs": [
        {
          "internalType": "bytes32[]",
          "name": "",
          "type": "bytes32[]"
        }
      ],
      "stateMutability": "nonpayable",
      "type": "function"
    },
    {
      "inputs": [
        {
          "internalType": "bytes32",
          "name": "_certificateId",
          "type": "bytes32"
        }
      ],
      "name": "certificateExists",
      "outputs": [
        {
          "internalType": "bool",
          "name": "",
          "type": "bool"
        }
      ],
      "stateMutability": "view",
      "type": "function"
    },
    {
      "inputs": [
        {
          "internalType": "bytes32",
          "name": "",
          "type": "bytes32"
        }
      ],
      "name": "certificateHashes",
      "outputs": [
        {
          "internalType": "bool",
          "name": "",
          "type": "bool"
        }
      ],
      "stateMutability": "view",
      "type": "function"
    },
    {
      "inputs": [
        {
          "internalType": "bytes32",
          "name": "",
          "type": "bytes32"
        }
      ],
      "name": "certificates",
      "outputs": [
        {
          "internalType": "string",
          "name": "studentName",
          "type": "string"
        },
        {
          "internalType": "string",
          "name": "course",
          "type": "string"
        },
        {
          "internalType": "string",
          "name": "ipfsHash",
          "type": "string"
        },
        {
          "internalType": "bytes32",
          "name": "fileHash",
          "type": "bytes32"
        },
        {
          "internalType": "address",
          "name": "issuer",
          "type": "address"
        },
        {
          "internalType": "address",
          "name": "student",
          "type": "address"
        },
        {
          "internalType": "uint256",
          "name": "issuedAt",
          "type": "uint256"
        },
        {
          "internalType": "bool",
          "name": "revoked",
          "type": "bool"
        },
        {
          "internalType": "string",
          "name": "instituteName",
          "type": "string"
        },
        {
          "internalType": "string",
          "name": "studentId",
          "type": "string"
        },
        {
          "internalType": "string",
          "name": "grade",
          "type": "string"
        },
        {
          "internalType": "uint256",
          "name": "credits",
          "type": "uint256"
        },
        {
          "internalType": "string",
          "name": "duration",
          "type": "string"
        }
      ],
      "stateMutability": "view",
      "type": "function"
    },
    {
      "inputs": [
        {
          "internalType": "address",
          "name": "",
          "type": "address"
        }
      ],
      "name": "contactInfos",
      "outputs": [
        {
          "internalType": "string",
          "name": "contactPerson",
          "type": "string"
        },
        {
          "internalType": "string",
          "name": "contactEmail",
          "type": "string"
        },
        {
          "internalType": "string",
          "name": "contactPhone",
          "type": "string"
        },
        {
          "internalType": "string",
          "name": "contactPosition",
          "type": "string"
        }
      ],
      "stateMutability": "view",
      "type": "function"
    },
    {
      "inputs": [
        {
          "internalType": "address",
          "name": "",
          "type": "address"
        }
      ],
      "name": "detailInfos",
      "outputs": [
        {
          "internalType": "uint256",
          "name": "establishedYear",
          "type": "uint256"
        },
        {
          "internalType": "string",
          "name": "accreditation",
          "type": "string"
        },
        {
          "internalType": "string",
          "name": "description",
          "type": "string"
        },
        {
          "internalType": "string",
          "name": "motto",
          "type": "string"
        },
        {
          "internalType": "uint256",
          "name": "studentCount",
          "type": "uint256"
        },
        {
          "internalType": "uint256",
          "name": "facultyCount",
          "type": "uint256"
        },
        {
          "internalType": "uint256",
          "name": "programCount",
          "type": "uint256"
        }
      ],
      "stateMutability": "view",
      "type": "function"
    },
    {
      "inputs": [],
      "name": "getAllInstitutes",
      "outputs": [
        {
          "internalType": "address[]",
          "name": "",
          "type": "address[]"
        }
      ],
      "stateMutability": "view",
      "type": "function"
    },
    {
      "inputs": [
        {
          "internalType": "address",
          "name": "_wallet",
          "type": "address"
        }
      ],
      "name": "getInstituteBasicInfo",
      "outputs": [
        {
          "internalType": "string",
          "name": "",
          "type": "string"
        },
        {
          "internalType": "string",
          "name": "",
          "type": "string"
        },
        {
          "internalType": "string",
          "name": "",
          "type": "string"
        },
        {
          "internalType": "string",
          "name": "",
          "type": "string"
        },
        {
          "internalType": "bool",
          "name": "",
          "type": "bool"
        },
        {
          "internalType": "uint256",
          "name": "",
          "type": "uint256"
        },
        {
          "internalType": "uint256",
          "name": "",
          "type": "uint256"
        }
      ],
      "stateMutability": "view",
      "type": "function"
    },
    {
      "inputs": [
        {
          "internalType": "address",
          "name": "_wallet",
          "type": "address"
        }
      ],
      "name": "getInstituteContactInfo",
      "outputs": [
        {
          "internalType": "string",
          "name": "",
          "type": "string"
        },
        {
          "internalType": "string",
          "name": "",
          "type": "string"
        },
        {
          "internalType": "string",
          "name": "",
          "type": "string"
        },
        {
          "internalType": "string",
          "name": "",
          "type": "string"
        }
      ],
      "stateMutability": "view",
      "type": "function"
    },
    {
      "inputs": [],
      "name": "getInstituteCount",
      "outputs": [
        {
          "internalType": "uint256",
          "name": "",
          "type": "uint256"
        }
      ],
      "stateMutability": "view",
      "type": "function"
    },
    {
      "inputs": [
        {
          "internalType": "address",
          "name": "_wallet",
          "type": "address"
        }
      ],
      "name": "getInstituteDetails",
      "outputs": [
        {
          "internalType": "uint256",
          "name": "",
          "type": "uint256"
        },
        {
          "internalType": "string",
          "name": "",
          "type": "string"
        },
        {
          "internalType": "string",
          "name": "",
          "type": "string"
        },
        {
          "internalType": "string",
          "name": "",
          "type": "string"
        },
        {
          "internalType": "uint256",
          "name": "",
          "type": "uint256"
        },
        {
          "internalType": "uint256",
          "name": "",
          "type": "uint256"
        },
        {
          "internalType": "uint256",
          "name": "",
          "type": "uint256"
        }
      ],
      "stateMutability": "view",
      "type": "function"
    },
    {
      "inputs": [
        {
          "internalType": "address",
          "name": "_wallet",
          "type": "address"
        }
      ],
      "name": "getInstituteSocialInfo",
      "outputs": [
        {
          "internalType": "string",
          "name": "",
          "type": "string"
        },
        {
          "internalType": "string",
          "name": "",
          "type": "string"
        },
        {
          "internalType": "string",
          "name": "",
          "type": "string"
        },
        {
          "internalType": "string",
          "name": "",
          "type": "string"
        }
      ],
      "stateMutability": "view",
      "type": "function"
    },
    {
      "inputs": [
        {
          "internalType": "address",
          "name": "_issuer",
          "type": "address"
        }
      ],
      "name": "getIssuerCertificates",
      "outputs": [
        {
          "internalType": "bytes32[]",
          "name": "",
          "type": "bytes32[]"
        }
      ],
      "stateMutability": "view",
      "type": "function"
    },
    {
      "inputs": [
        {
          "internalType": "address",
          "name": "_student",
          "type": "address"
        }
      ],
      "name": "getStudentCertificates",
      "outputs": [
        {
          "internalType": "bytes32[]",
          "name": "",
          "type": "bytes32[]"
        }
      ],
      "stateMutability": "view",
      "type": "function"
    },
    {
      "inputs": [],
      "name": "getTotalStudents",
      "outputs": [
        {
          "internalType": "uint256",
          "name": "",
          "type": "uint256"
        }
      ],
      "stateMutability": "view",
      "type": "function"
    },
    {
      "inputs": [
        {
          "internalType": "uint256",
          "name": "",
          "type": "uint256"
        }
      ],
      "name": "instituteAddresses",
      "outputs": [
        {
          "internalType": "address",
          "name": "",
          "type": "address"
        }
      ],
      "stateMutability": "view",
      "type": "function"
    },
    {
      "inputs": [
        {
          "internalType": "address",
          "name": "",
          "type": "address"
        }
      ],
      "name": "institutes",
      "outputs": [
        {
          "internalType": "string",
          "name": "name",
          "type": "string"
        },
        {
          "internalType": "string",
          "name": "id",
          "type": "string"
        },
        {
          "internalType": "string",
          "name": "email",
          "type": "string"
        },
        {
          "internalType": "string",
          "name": "website",
          "type": "string"
        },
        {
          "internalType": "bool",
          "name": "isActive",
          "type": "bool"
        },
        {
          "internalType": "uint256",
          "name": "registeredAt",
          "type": "uint256"
        },
        {
          "internalType": "uint256",
          "name": "certificatesIssued",
          "type": "uint256"
        }
      ],
      "stateMutability": "view",
      "type": "function"
    },
    {
      "inputs": [
        {
          "internalType": "address",
          "name": "",
          "type": "address"
        }
      ],
      "name": "isStudent",
      "outputs": [
        {
          "internalType": "bool",
          "name": "",
          "type": "bool"
        }
      ],
      "stateMutability": "view",
      "type": "function"
    },
    {
      "inputs": [
        {
          "internalType": "string",
          "name": "_studentName",
          "type": "string"
        },
        {
          "internalType": "string",
          "name": "_course",
          "type": "string"
        },
        {
          "internalType": "string",
          "name": "_ipfsHash",
          "type": "string"
        },
        {
          "internalType": "bytes32",
          "name": "_fileHash",
          "type": "bytes32"
        },
        {
          "internalType": "address",
          "name": "_studentWallet",
          "type": "address"
        },
        {
          "internalType": "string",
          "name": "_studentId",
          "type": "string"
        },
        {
          "internalType": "string",
          "name": "_grade",
          "type": "string"
        },
        {
          "internalType": "uint256",
          "name": "_credits",
          "type": "uint256"
        },
        {
          "internalType": "string",
          "name": "_duration",
          "type": "string"
        },
        {
          "internalType": "string[]",
          "name": "_skills",
          "type": "string[]"
        }
      ],
      "name": "issueCertificate",
      "outputs": [
        {
          "internalType": "bytes32",
          "name": "",
          "type": "bytes32"
        }
      ],
      "stateMutability": "nonpayable",
      "type": "function"
    },
    {
      "inputs": [
        {
          "internalType": "address",
          "name": "",
          "type": "address"
        },
        {
          "internalType": "uint256",
          "name": "",
          "type": "uint256"
        }
      ],
      "name": "issuerCertificates",
      "outputs": [
        {
          "internalType": "bytes32",
          "name": "",
          "type": "bytes32"
        }
      ],
      "stateMutability": "view",
      "type": "function"
    },
    {
      "inputs": [],
      "name": "owner",
      "outputs": [
        {
          "internalType": "address",
          "name": "",
          "type": "address"
        }
      ],
      "stateMutability": "view",
      "type": "function"
    },
    {
      "inputs": [
        {
          "internalType": "address",
          "name": "_wallet",
          "type": "address"
        },
        {
          "internalType": "string",
          "name": "_name",
          "type": "string"
        },
        {
          "internalType": "string",
          "name": "_id",
          "type": "string"
        },
        {
          "internalType": "string",
          "name": "_email",
          "type": "string"
        },
        {
          "internalType": "string",
          "name": "_website",
          "type": "string"
        },
        {
          "internalType": "string",
          "name": "_contactPerson",
          "type": "string"
        },
        {
          "internalType": "string",
          "name": "_contactEmail",
          "type": "string"
        },
        {
          "internalType": "string",
          "name": "_contactPhone",
          "type": "string"
        },
        {
          "internalType": "string",
          "name": "_contactPosition",
          "type": "string"
        },
        {
          "internalType": "uint256",
          "name": "_establishedYear",
          "type": "uint256"
        },
        {
          "internalType": "string",
          "name": "_accreditation",
          "type": "string"
        },
        {
          "internalType": "string",
          "name": "_description",
          "type": "string"
        },
        {
          "internalType": "string",
          "name": "_motto",
          "type": "string"
        },
        {
          "internalType": "uint256",
          "name": "_studentCount",
          "type": "uint256"
        },
        {
          "internalType": "uint256",
          "name": "_facultyCount",
          "type": "uint256"
        },
        {
          "internalType": "uint256",
          "name": "_programCount",
          "type": "uint256"
        },
        {
          "internalType": "string",
          "name": "_twitter",
          "type": "string"
        },
        {
          "internalType": "string",
          "name": "_linkedin",
          "type": "string"
        },
        {
          "internalType": "string",
          "name": "_taxId",
          "type": "string"
        },
        {
          "internalType": "string",
          "name": "_registrationNumber",
          "type": "string"
        }
      ],
      "name": "registerInstitute",
      "outputs": [],
      "stateMutability": "nonpayable",
      "type": "function"
    },
    {
      "inputs": [
        {
          "internalType": "bytes32",
          "name": "_certificateId",
          "type": "bytes32"
        }
      ],
      "name": "revokeCertificate",
      "outputs": [],
      "stateMutability": "nonpayable",
      "type": "function"
    },
    {
      "inputs": [
        {
          "internalType": "address",
          "name": "_wallet",
          "type": "address"
        },
        {
          "internalType": "bool",
          "name": "_status",
          "type": "bool"
        }
      ],
      "name": "setInstituteStatus",
      "outputs": [],
      "stateMutability": "nonpayable",
      "type": "function"
    },
    {
      "inputs": [
        {
          "internalType": "address",
          "name": "",
          "type": "address"
        }
      ],
      "name": "socialInfos",
      "outputs": [
        {
          "internalType": "string",
          "name": "twitter",
          "type": "string"
        },
        {
          "internalType": "string",
          "name": "linkedin",
          "type": "string"
        },
        {
          "internalType": "string",
          "name": "taxId",
          "type": "string"
        },
        {
          "internalType": "string",
          "name": "registrationNumber",
          "type": "string"
        }
      ],
      "stateMutability": "view",
      "type": "function"
    },
    {
      "inputs": [
        {
          "internalType": "address",
          "name": "",
          "type": "address"
        },
        {
          "internalType": "uint256",
          "name": "",
          "type": "uint256"
        }
      ],
      "name": "studentCertificates",
      "outputs": [
        {
          "internalType": "bytes32",
          "name": "",
          "type": "bytes32"
        }
      ],
      "stateMutability": "view",
      "type": "function"
    },
    {
      "inputs": [
        {
          "internalType": "address",
          "name": "",
          "type": "address"
        },
        {
          "internalType": "bytes32",
          "name": "",
          "type": "bytes32"
        }
      ],
      "name": "studentCourseIssued",
      "outputs": [
        {
          "internalType": "bool",
          "name": "",
          "type": "bool"
        }
      ],
      "stateMutability": "view",
      "type": "function"
    },
    {
      "inputs": [
        {
          "internalType": "uint256",
          "name": "",
          "type": "uint256"
        }
      ],
      "name": "studentList",
      "outputs": [
        {
          "internalType": "address",
          "name": "",
          "type": "address"
        }
      ],
      "stateMutability": "view",
      "type": "function"
    },
    {
      "inputs": [
        {
          "internalType": "bytes32",
          "name": "_certificateId",
          "type": "bytes32"
        }
      ],
      "name": "verifyCertificate",
      "outputs": [
        {
          "internalType": "string",
          "name": "",
          "type": "string"
        },
        {
          "internalType": "string",
          "name": "",
          "type": "string"
        },
        {
          "internalType": "string",
          "name": "",
          "type": "string"
        },
        {
          "internalType": "bytes32",
          "name": "",
          "type": "bytes32"
        },
        {
          "internalType": "address",
          "name": "",
          "type": "address"
        },
        {
          "internalType": "address",
          "name": "",
          "type": "address"
        },
        {
          "internalType": "uint256",
          "name": "",
          "type": "uint256"
        },
        {
          "internalType": "bool",
          "name": "",
          "type": "bool"
        },
        {
          "internalType": "string",
          "name": "",
          "type": "string"
        }
      ],
      "stateMutability": "view",
      "type": "function"
    }
  ],
  "bytecode": "0x6080806040523461002857600080546001600160a01b03191633179055613847908161002e8239f35b600080fdfe60c080604052600436101561001357600080fd5b60003560e01c9081631b8c3d5b1461200c57508063233ea01f14611fbf57806328bcb51a14611fa15780633c9cc98c14611f2a5780633fc5b0bb14611e6e57806350b494dc1461194a57806360e7bb0d1461192c5780636383838d146118645780636ae9a8da14610c18578063742f068814610ac85780637a8ee24b14610a505780637af0e11514610a185780637df221e9146109bd5780637e0e46b71461093c57806381a87af4146108cf57806382f7d39214610890578063850c1768146107925780638da5cb5b146107695780639111169814610655578063947ff3241461060b578063b37408b6146105d4578063b440983e1461059b578063bedda47e1461056a578063bf88ec9a14610511578063c3934f0e146104b9578063c6cbc52a14610383578063d4085e3b146102d3578063e6093e30146101eb5763ebc63bc01461015e57600080fd5b346101e6576020806003193601126101e6576001600160a01b0361018061207d565b1660005260078152604060002090604051908181845491828152019360005281600020916000905b8282106101cf576101cb856101bf81890382612103565b60405191829182612395565b0390f35b8354865294850194600193840193909101906101a8565b600080fd5b346101e65760403660031901126101e65761020461207d565b60243590811515908183036101e6576000546001600160a01b03919061022d908316331461241b565b169182600052600160205260056040600020015415610298577f638d020d329a518b1d14145cd5062df669e099482dcc67106b25a3d5bdbe405e9161028f602092856000526001845260046040600020019060ff801983541691151516179055565b604051908152a2005b60405162461bcd60e51b8152602060048201526013602482015272125b9cdd1a5d1d5d19481b9bdd08199bdd5b99606a1b6044820152606490fd5b346101e65760203660031901126101e6576001600160a01b036102f461207d565b166000526004602052604060002060405161030e816120cd565b815481526101cb61032160018401612124565b916020810192835261033560028501612124565b936040820194855261034960038201612124565b80606084015260048201549081608085015260066005840154938460a08701520154938460c0820152519551965160405197889788612212565b346101e65760203660031901126101e6576004356103b96103b4826000526006602052600660406000200154151590565b6137cd565b8060005260066020526040600020600781019081549060ff821661048257600054336001600160a01b0391821614918215610471575b50501561042c5760019060ff19161790557f1dbd7f0554a6447214abb6405781d5ee119037a7024fcb7fffd542c3c12cd7766020604051338152a2005b60405162461bcd60e51b815260206004820152601f60248201527f4f6e6c79206f776e6572206f72206973737565722063616e207265766f6b65006044820152606490fd5b6004919250015416331484806103ef565b60405162461bcd60e51b815260206004820152600f60248201526e105b1c9958591e481c995d9bdad959608a1b6044820152606490fd5b346101e65760403660031901126101e6576104d261207d565b6001600160a01b03166000908152600760205260409020805460243591908210156101e65760209161050391612065565b90546040519160031b1c8152f35b346101e65760203660031901126101e6576001600160a01b0361053261207d565b1660005260056020526105486040600020612844565b80516101cb6020830151926060604082015191015190604051948594856123d0565b346101e65760203660031901126101e6576004356000526009602052602060ff604060002054166040519015158152f35b346101e65760203660031901126101e65760206105ca6004356000526006602052600660406000200154151590565b6040519015158152f35b346101e65760203660031901126101e6576001600160a01b036105f561207d565b1660005260036020526105486040600020612844565b346101e65760403660031901126101e65761062461207d565b6001600160a01b03166000908152600860205260409020805460243591908210156101e65760209161050391612065565b346101e6576101403660031901126101e6576001600160401b036004358181116101e6576106879036906004016122bf565b906024358181116101e6576106a09036906004016122bf565b6044358281116101e6576106b89036906004016122bf565b90608435906001600160a01b03821682036101e65760a4358481116101e6576106e59036906004016122bf565b60c4358581116101e6576106fd9036906004016122bf565b90610104358681116101e6576107179036906004016122bf565b93610124359687116101e657602097610737610761983690600401612315565b963360005260018a5261075460ff60046040600020015416612892565b60e435956064359261292f565b604051908152f35b346101e65760003660031901126101e6576000546040516001600160a01b039091168152602090f35b346101e65760203660031901126101e6576004356107c36103b4826000526006602052600660406000200154151590565b600052600660205261084a60406000206101cb600382015460018060a01b03928360048201541693600582015416600682015460ff6007840154169161080884612124565b9661086661081860018701612124565b95610858610834600861082d60028501612124565b9301612124565b976040519c8d9c8d6101209081815201906121ed565b8c810360208e0152906121ed565b908a820360408c01526121ed565b956060890152608088015260a087015260c0860152151560e08501528382036101008501526121ed565b346101e65760203660031901126101e6576001600160a01b036108b161207d565b16600052600c602052602060ff604060002054166040519015158152f35b346101e65760203660031901126101e6576001600160a01b036108f061207d565b166000526003602052604060002061090781612124565b6101cb61091660018401612124565b9261092f600361092860028401612124565b9201612124565b90604051948594856123d0565b346101e65760203660031901126101e6576001600160a01b0361095d61207d565b166000526001602052604060002061097481612124565b6101cb61098360018401612124565b9261099060028201612124565b9061099d60038201612124565b60ff60048301541690600660058401549301549360405197889788612264565b346101e65760203660031901126101e657600435600b548110156101e657600b6000527f0175b7a638427703f0dbe7bb9bbf987a2551717b34e79f33b5b1008d1fa01db901546040516001600160a01b039091168152602090f35b346101e65760203660031901126101e6576001600160a01b03610a3961207d565b166000526005602052604060002061090781612124565b346101e6576020806003193601126101e6576001600160a01b03610a7261207d565b1660005260088152604060002090604051908181845491828152019360005281600020916000905b828210610ab1576101cb856101bf81890382612103565b835486529485019460019384019390910190610a9a565b346101e65760203660031901126101e65760043560005260066020526040600020610af281612124565b610afe60018301612124565b91610b0b60028201612124565b906003810154600160a01b6001900390816004840154169160058401541690600684015490600785015460ff1660088601610b4590612124565b92610b5260098801612124565b94610b5f600a8901612124565b96600b89015498600c01610b7290612124565b996040519c8d9c8d6101a09081815201610b8b916121ed565b8d810360208f0152610b9c916121ed565b8c810360408e0152610bad916121ed565b9460608c015260808b015260a08a015260c0890152151560e0880152868103610100880152610bdb916121ed565b858103610120870152610bed916121ed565b848103610140860152610bff916121ed565b906101608401528281036101808401526101cb916121ed565b346101e6576102803660031901126101e657610c3261207d565b6024356001600160401b0381116101e657610c519036906004016122bf565b6044356001600160401b0381116101e657610c709036906004016122bf565b916064356001600160401b0381116101e657610c909036906004016122bf565b926084356001600160401b0381116101e657610cb09036906004016122bf565b9060a4356001600160401b0381116101e657610cd09036906004016122bf565b9460c4356001600160401b0381116101e657610cf09036906004016122bf565b9160e4356001600160401b0381116101e657610d109036906004016122bf565b92610104356001600160401b0381116101e657610d319036906004016122bf565b610144356001600160401b0381116101e657610d519036906004016122bf565b90610164356001600160401b0381116101e657610d729036906004016122bf565b99610184356001600160401b0381116101e657610d939036906004016122bf565b91610204356001600160401b0381116101e657610db49036906004016122bf565b97610224356001600160401b0381116101e657610dd59036906004016122bf565b95610244356001600160401b0381116101e657610df69036906004016122bf565b976001600160401b0361026435116101e6578c9b610e1a36610264356004016122bf565b9a60018060a01b03809e610e338260005416331461241b565b161561182e578d8f1660005260016020526005604060002001546117e9578f9260405193610e60856120cd565b8452602084015260408301526060820152600160808201524260a0820152600060c08201528b8d16600052600160205260406000209080518051906001600160401b0382116112e0578190610eb58554612093565b601f81116117b7575b50602090601f831160011461174b57600092611740575b50508160011b916000199060031b1c19161782555b60208101518051906001600160401b0382116112e0578190610f0f6001860154612093565b601f811161170b575b50602090601f83116001146116995760009261168e575b50508160011b916000199060031b1c19161760018301555b60408101518051906001600160401b0382116112e0578190610f6c6002860154612093565b601f8111611659575b50602090601f83116001146115e7576000926115dc575b50508160011b916000199060031b1c19161760028301555b60608101518051906001600160401b0382116112e057610fc76003850154612093565b601f81116115a7575b50602090601f831160011461152a57928260069360c0936110719b9a9998979660009261151f575b50508160011b916000199060031b1c19161760038501555b61102f60808201511515600486019060ff801983541691151516179055565b60a0810151600585015501519101556040519361104b856120e8565b8452602084015260408301526060820152888a166000526003602052604060002061246b565b6040519961107e8b6120cd565b610124358b5260208b0192835260408b015260608a01526101a43560808a01526101c43560a08a01526101e43560c08a0152858716600052600460205260406000209089518255518051906001600160401b0382116112e05781906110e66001850154612093565b601f81116114ea575b50602090601f83116001146114785760009261146d575b50508160011b916000199060031b1c19161760018201555b60408901518051906001600160401b0382116112e05781906111436002850154612093565b601f8111611438575b50602090601f83116001146113c6576000926113bb575b50508160011b916000199060031b1c19161760028201555b60608901519889516001600160401b0381116112e05761119e6003840154612093565b601f811161137b575b506020601f821160011461130157918160c0926006946112309b9c9d9e6000926112f6575b50508160011b916000199060031b1c19161760038501555b6080810151600485015560a0810151600585015501519101556040519361120a856120e8565b84526020840152604083015260608201528284166000526005602052604060002061246b565b60025491600160401b8310156112e05760018301806002558310156112ca577f27c3a42746b24e7de34a21f70566d7c6d2a86afbe2262d1e86c5c96f5f5e220f9260026000527f405787fa12a823e0f2b7631cc41b3ba8828b3321ca811111fa75cd3aa3bb5ace018282166001600160601b0360a01b8254161790556112c560405192839260208452169460208301906121ed565b0390a2005b634e487b7160e01b600052603260045260246000fd5b634e487b7160e01b600052604160045260246000fd5b015190508e806111cc565b6003840160005260206000209b60005b601f19841681106113635750826112309a9b9c9d6006959360019360c096601f1981161061134a575b505050811b0160038501556111e4565b015160001960f88460031b161c191690558e808061133a565b828201518e556001909d019c60209283019201611311565b6113ab90600385016000526020600020601f840160051c810191602085106113b1575b601f0160051c0190612454565b8b6111a7565b909150819061139e565b015190508b80611163565b9250600284016000526020600020906000935b601f198416851061141d576001945083601f19811610611404575b505050811b01600282015561117b565b015160001960f88460031b161c191690558b80806113f4565b818101518355602094850194600190930192909101906113d9565b61146790600286016000526020600020601f850160051c810191602086106113b157601f0160051c0190612454565b8c61114c565b015190508b80611106565b9250600184016000526020600020906000935b601f19841685106114cf576001945083601f198116106114b6575b505050811b01600182015561111e565b015160001960f88460031b161c191690558b80806114a6565b8181015183556020948501946001909301929091019061148b565b61151990600186016000526020600020601f850160051c810191602086106113b157601f0160051c0190612454565b8c6110ef565b015190503880610ff8565b906003850160005260206000209160005b601f198516811061158f57508360c0936110719b9a9998979693600193600697601f19811610611576575b505050811b016003850155611010565b015160001960f88460031b161c19169055388080611566565b9192602060018192868501518155019401920161153b565b6115d690600386016000526020600020601f850160051c810191602086106113b157601f0160051c0190612454565b38610fd0565b015190503880610f8c565b9250600285016000526020600020906000935b601f198416851061163e576001945083601f19811610611625575b505050811b016002830155610fa4565b015160001960f88460031b161c19169055388080611615565b818101518355602094850194600190930192909101906115fa565b61168890600287016000526020600020601f850160051c810191602086106113b157601f0160051c0190612454565b38610f75565b015190503880610f2f565b9250600185016000526020600020906000935b601f19841685106116f0576001945083601f198116106116d7575b505050811b016001830155610f47565b015160001960f88460031b161c191690553880806116c7565b818101518355602094850194600190930192909101906116ac565b61173a90600187016000526020600020601f850160051c810191602086106113b157601f0160051c0190612454565b38610f18565b015190503880610ed5565b9250846000526020600020906000935b601f198416851061179c576001945083601f19811610611783575b505050811b018255610eea565b015160001960f88460031b161c19169055388080611776565b8181015183556020948501946001909301929091019061175b565b6117e390866000526020600020601f850160051c810191602086106113b157601f0160051c0190612454565b38610ebe565b60405162461bcd60e51b815260206004820152601860248201527f496e7374697475746520616c72656164792065786973747300000000000000006044820152606490fd5b60405162461bcd60e51b815260206004820152600e60248201526d125b9d985b1a59081dd85b1b195d60921b6044820152606490fd5b346101e65760003660031901126101e657604051806002548083526020809301809160026000527f405787fa12a823e0f2b7631cc41b3ba8828b3321ca811111fa75cd3aa3bb5ace9060005b8682821061190f5786866118c682880383612103565b604051928392818401908285525180915260408401929160005b8281106118ef57505050500390f35b83516001600160a01b0316855286955093810193928101926001016118e0565b83546001600160a01b0316855290930192600192830192016118b0565b346101e65760003660031901126101e6576020600254604051908152f35b346101e6576101403660031901126101e6576004356001600160401b0381116101e65761197b903690600401612315565b6024356001600160401b0381116101e65761199a903690600401612315565b6044356001600160401b0381116101e6576119b9903690600401612315565b90606435916001600160401b0383116101e657366023840112156101e6578260040135926119e6846122a8565b936119f46040519586612103565b8085526024602086019160051b830101913683116101e657602401905b828210611e5e575050506084356001600160401b0381116101e657366023820112156101e657806004013590611a55611a49836122a8565b6040518060a052612103565b8160a051526024602060a051019260051b820101903682116101e657602401915b818310611e3e5750505060a4356001600160401b0381116101e657611a9f903690600401612315565b60c4356001600160401b0381116101e657611abe903690600401612315565b60e4356001600160401b0381116101e657366023820112156101e657806004013590611ae9826122a8565b91611af76040519384612103565b8083526024602084019160051b830101913683116101e657602401905b828210611e2e57505050610104356001600160401b0381116101e657611b3e903690600401612315565b916001600160401b0361012435116101e657366023610124350112156101e657611b6e61012435600401356122a8565b93611b7c6040519586612103565b6101243560040135855260208501366024610124356004013560051b610124350101116101e65760246101243501905b6024610124356004013560051b6101243501018210611dfc575050336000526001602052611be460ff60046040600020015416612892565b8851978815611dc9578751891480611dbf575b80611db5575b80611da9575b80611d9f575b80611d95575b80611d8b575b80611d81575b80611d77575b15611d3257611c2f896122a8565b98611c3d6040519a8b612103565b808a52601f19611c4c826122a8565b013660208c013760809a60008c525b8b5182811015611d2457898d8989898f95611c778f91896137b9565b51968551611c84916137b9565b51958551611c91916137b9565b518551611c9e908c6137b9565b51865160a0519192916001600160a01b0391611cb9916137b9565b5116928d8851611cc8916137b9565b51948851611cd5916137b9565b51958851611ce2916137b9565b51968851611cef916137b9565b519751611cfb916137b9565b5197611d069961292f565b8c51611d12908d6137b9565b52611d1d8c5161290a565b8c52611c5b565b604051806101cb8e82612395565b60405162461bcd60e51b815260206004820152601b60248201527f4261746368206172726179206c656e677468206d69736d6174636800000000006044820152606490fd5b5085518914611c21565b5084518914611c1b565b5083518914611c15565b5082518914611c0f565b5081518914611c09565b5060a051518914611c03565b5080518914611bfd565b5086518914611bf7565b60405162461bcd60e51b815260206004820152600b60248201526a08adae0e8f240c4c2e8c6d60ab1b6044820152606490fd5b81356001600160401b0381116101e657602091611e23839260243691610124350101612315565b815201910190611bac565b8135815260209182019101611b14565b82356001600160a01b03811681036101e657815260209283019201611a76565b8135815260209182019101611a11565b346101e65760203660031901126101e6576001600160a01b03611e8f61207d565b1660005260016020526040600020604051611ea9816120cd565b611eb282612124565b81526101cb611ec360018401612124565b9160208101928352611ed760028501612124565b9360408201948552611eeb60038201612124565b80606084015260ff60048301541615159081608085015260066005840154938460a08701520154938460c0820152519551965160405197889788612264565b346101e65760203660031901126101e6576001600160a01b03611f4b61207d565b166000526004602052604060002080546101cb611f6a60018401612124565b92611f7760028201612124565b90611f8460038201612124565b600482015490600660058401549301549360405197889788612212565b346101e65760003660031901126101e6576020600b54604051908152f35b346101e65760403660031901126101e6576001600160a01b03611fe061207d565b16600052600a6020526040600020602435600052602052602060ff604060002054166040519015158152f35b346101e65760203660031901126101e657600435906002548210156101e65760026000527f405787fa12a823e0f2b7631cc41b3ba8828b3321ca811111fa75cd3aa3bb5ace909101546001600160a01b03168152602090f35b80548210156112ca5760005260206000200190600090565b600435906001600160a01b03821682036101e657565b90600182811c921680156120c3575b60208310146120ad57565b634e487b7160e01b600052602260045260246000fd5b91607f16916120a2565b60e081019081106001600160401b038211176112e057604052565b608081019081106001600160401b038211176112e057604052565b90601f801991011681019081106001600160401b038211176112e057604052565b906040519182600082549261213884612093565b9081845260019485811690816000146121a75750600114612164575b505061216292500383612103565b565b9093915060005260209081600020936000915b81831061218f57505061216293508201013880612154565b85548884018501529485019487945091830191612177565b91505061216294506020925060ff191682840152151560051b8201013880612154565b60005b8381106121dd5750506000910152565b81810151838201526020016121cd565b90602091612206815180928185528580860191016121ca565b601f01601f1916010190565b939060c095989796936122396122559461224793885260e0602089015260e08801906121ed565b9086820360408801526121ed565b9084820360608601526121ed565b95608083015260a08201520152565b939060c09598979693612239612297946122896122479460e08a5260e08a01906121ed565b9088820360208a01526121ed565b951515608083015260a08201520152565b6001600160401b0381116112e05760051b60200190565b81601f820112156101e6578035906001600160401b0382116112e057604051926122f3601f8401601f191660200185612103565b828452602083830101116101e657816000926020809301838601378301015290565b9080601f830112156101e65781359061232d826122a8565b9261233b6040519485612103565b828452602092838086019160051b830101928084116101e657848301915b8483106123695750505050505090565b82356001600160401b0381116101e657869161238a848480948901016122bf565b815201920191612359565b6020908160408183019282815285518094520193019160005b8281106123bc575050505090565b8351855293810193928101926001016123ae565b926123fc61241895936123ee61240a946080885260808801906121ed565b9086820360208801526121ed565b9084820360408601526121ed565b9160608184039101526121ed565b90565b1561242257565b60405162461bcd60e51b815260206004820152600a60248201526927b7363c9037bbb732b960b11b6044820152606490fd5b81811061245f575050565b60008155600101612454565b81518051906001600160401b03918281116112e0578061248b8554612093565b92601f93848111612814575b506020908483116001146127af576000926127a4575b50508160011b916000199060031b1c19161783555b60019283810160208601518051908582116112e05781906124e38454612093565b868111612774575b5060209086831160011461271157600092612706575b5050600019600383901b1c191690861b1790555b6002810160408601518051908582116112e0576125328354612093565b8581116126d6575b50602090858311600114612669579180600394926060969460009261265e575b505060001982861b1c191690881b1790555b0194015180519283116112e0576125838554612093565b828111612624575b5060209183116001146125c4579282939183926000946125b9575b50501b916000199060031b1c1916179055565b0151925038806125a6565b90601f198316918560005283826000209360005b8782821061260b575050106125f2575b505050811b019055565b015160001960f88460031b161c191690553880806125e8565b84860151875590950194602094850194879350016125d8565b61264f908660005260206000208480870160051c82019260208810612655575b0160051c0190612454565b3861258b565b92508192612644565b01519050388061255a565b879291601f1983169185600052816000209260005b8181106126be575091606097959391856003989694106126a6575b505050811b01905561256c565b015160001983881b60f8161c19169055388080612699565b8284015185558b96909401936020938401930161267e565b612700908460005260206000208780860160051c82019260208710612655570160051c0190612454565b3861253a565b015190503880612501565b90889350601f1983169185600052816000209260005b81811061275c57508411612743575b505050811b019055612515565b015160001960f88460031b161c19169055388080612736565b8284015185558b969094019360209384019301612727565b61279e908560005260206000208880860160051c82019260208710612655570160051c0190612454565b386124eb565b0151905038806124ad565b60008781528281209350601f198516905b8181106127fc57509084600195949392106127e3575b505050811b0183556124c2565b015160001960f88460031b161c191690553880806127d6565b929360206001819287860151815501950193016127c0565b61283e908760005260206000208680860160051c82019260208710612655570160051c0190612454565b38612497565b90604051612851816120e8565b606061288d6003839561286381612124565b855261287160018201612124565b602086015261288260028201612124565b604086015201612124565b910152565b1561289957565b60405162461bcd60e51b8152602060048201526014602482015273496e73746974757465206e6f742061637469766560601b6044820152606490fd5b8054600160401b8110156112e0576128f291600182018155612065565b819291549060031b91821b91600019901b1916179055565b60001981146129195760010190565b634e487b7160e01b600052601160045260246000fd5b95939798909496929886511561377c5785511561374557891561370c576001600160a01b038916156136ce57604051938a6020860152602085528460408101106001600160401b036040870111176112e05760408501604052845160208601209485600052600960205260ff60406000205416613693575060405160208101906001600160601b03198c60601b1682526129e96034828b6129d981518092602086860191016121ca565b8101036014810184520182612103565b5190209560018060a01b038b16600052600a60205260406000208760005260205260ff6040600020541661363657336000526001602052612a2d6040600020612124565b9960405195866101c08101106001600160401b036101c0890111176112e0576101c087016040528a875289602088015260408701528c606087015233608087015260018060a01b038c1660a08701524260c0870152600060e08701528a6101008701526101208601526101408501526101608401526101808301526101a082015287600052600660205260406000209080518051906001600160401b0382116112e0578190612adc8554612093565b601f8111613604575b50602090601f83116001146135985760009261358d575b50508160011b916000199060031b1c19161782555b60208101518051906001600160401b0382116112e0578190612b366001860154612093565b601f8111613558575b50602090601f83116001146134e6576000926134db575b50508160011b916000199060031b1c19161760018301555b60408101518051906001600160401b0382116112e0578190612b936002860154612093565b601f81116134a6575b50602090601f831160011461343457600092613429575b50508160011b916000199060031b1c19161760028301555b6060810151600383015560018060a01b036080820151166001600160601b0360a01b6004840154161760048301556005820160018060a01b0360a0830151166001600160601b0360a01b82541617905560c08101516006830155612c4460e08201511515600784019060ff801983541691151516179055565b6101008101518051906001600160401b0382116112e0578190612c6a6008860154612093565b601f81116133f4575b50602090601f831160011461338257600092613377575b50508160011b916000199060031b1c19161760088301555b6101208101518051906001600160401b0382116112e0578190612cc86009860154612093565b601f8111613342575b50602090601f83116001146132d0576000926132c5575b50508160011b916000199060031b1c19161760098301555b6101408101518051906001600160401b0382116112e0578190612d26600a860154612093565b601f8111613290575b50602090601f831160011461321e57600092613213575b50508160011b916000199060031b1c191617600a8301555b610160810151600b8301556101808101518051906001600160401b0382116112e057612d8d600c850154612093565b601f81116131de575b50602090601f831160011461316a576101a09392916000918361315f575b50508160011b916000199060031b1c191617600c8401555b0151805190600160401b82116112e057600d83015482600d8501558083106130e7575b5090600d60208b9897969594930192016000526020600020916000905b828210612fc2575050505060018060a01b0387166000526007602052612e368560406000206128d5565b336000526008602052612e4d8560406000206128d5565b3360005260016020526006604060002001612e68815461290a565b9055600052600960205260406000209060ff199160018382541617905560018060a01b038716600052600a602052604060002090600052602052604060002060018282541617905560018060a01b038616600052600c602052604060002090815460ff811615612f4b575b5050507f61b97a1433ae317d29484d5a9b176ba5a14cf04e1e20b3c08493a5773b05921f91612f45612f24612f16936040519485946080865260808601906121ed565b9084820360208601526121ed565b42604084015282810360608401526001600160a01b039097169633966121ed565b0390a490565b166001179055600b5491925090600160401b8110156112e0576001810180600b558110156112ca57600b6000527f0175b7a638427703f0dbe7bb9bbf987a2551717b34e79f33b5b1008d1fa01db90180546001600160a01b0319166001600160a01b03861617905584919081612f45612f24612ed3565b80919293949596979850518051906001600160401b0382116112e057612fe88654612093565b601f81116130b5575b50602090601f831160011461304557928260019493602093869560009261303a575b5050600019600383901b1c191690841b1787555b01940191018a9796959493929192612e0c565b015190503880613013565b908660005260206000209160005b601f198516811061309d575083602093600196938796938794601f19811610613084575b505050811b018755613027565b015160001960f88460031b161c19169055388080613077565b91926020600181928685015181550194019201613053565b6130e190876000526020600020601f850160051c810191602086106113b157601f0160051c0190612454565b38612ff1565b600d84016000526020600020908382015b8183018110613108575050612def565b8061311560019254612093565b80613122575b50016130f8565b601f811183146131385750600081555b3861311b565b600090828252613156601f60208420920160051c8201858301612454565b81835555613132565b015190503880612db4565b90600c850160005260206000209160005b601f19851681106131c657509183916001936101a09695601f198116106131ad575b505050811b01600c840155612dcc565b015160001960f88460031b161c1916905538808061319d565b9192602060018192868501518155019401920161317b565b61320d90600c86016000526020600020601f850160051c810191602086106113b157601f0160051c0190612454565b38612d96565b015190503880612d46565b9250600a85016000526020600020906000935b601f1984168510613275576001945083601f1981161061325c575b505050811b01600a830155612d5e565b015160001960f88460031b161c1916905538808061324c565b81810151835560209485019460019093019290910190613231565b6132bf90600a87016000526020600020601f850160051c810191602086106113b157601f0160051c0190612454565b38612d2f565b015190503880612ce8565b9250600985016000526020600020906000935b601f1984168510613327576001945083601f1981161061330e575b505050811b016009830155612d00565b015160001960f88460031b161c191690553880806132fe565b818101518355602094850194600190930192909101906132e3565b61337190600987016000526020600020601f850160051c810191602086106113b157601f0160051c0190612454565b38612cd1565b015190503880612c8a565b9250600885016000526020600020906000935b601f19841685106133d9576001945083601f198116106133c0575b505050811b016008830155612ca2565b015160001960f88460031b161c191690553880806133b0565b81810151835560209485019460019093019290910190613395565b61342390600887016000526020600020601f850160051c810191602086106113b157601f0160051c0190612454565b38612c73565b015190503880612bb3565b9250600285016000526020600020906000935b601f198416851061348b576001945083601f19811610613472575b505050811b016002830155612bcb565b015160001960f88460031b161c19169055388080613462565b81810151835560209485019460019093019290910190613447565b6134d590600287016000526020600020601f850160051c810191602086106113b157601f0160051c0190612454565b38612b9c565b015190503880612b56565b9250600185016000526020600020906000935b601f198416851061353d576001945083601f19811610613524575b505050811b016001830155612b6e565b015160001960f88460031b161c19169055388080613514565b818101518355602094850194600190930192909101906134f9565b61358790600187016000526020600020601f850160051c810191602086106113b157601f0160051c0190612454565b38612b3f565b015190503880612afc565b9250846000526020600020906000935b601f19841685106135e9576001945083601f198116106135d0575b505050811b018255612b11565b015160001960f88460031b161c191690553880806135c3565b818101518355602094850194600190930192909101906135a8565b61363090866000526020600020601f850160051c810191602086106113b157601f0160051c0190612454565b38612ae5565b60405162461bcd60e51b815260206004820152602f60248201527f53747564656e7420616c7265616479206861732063657274696669636174652060448201526e666f72207468697320636f7572736560881b6064820152608490fd5b604060649162461bcd60e51b82820152602060448201526012838201527143657274696669636174652065786973747360701b608482015201fd5b60405162461bcd60e51b8152602060048201526016602482015275125b9d985b1a59081cdd1d59195b9d081dd85b1b195d60521b6044820152606490fd5b60405162461bcd60e51b8152602060048201526011602482015270092dcecc2d8d2c840ccd2d8ca40d0c2e6d607b1b6044820152606490fd5b60405162461bcd60e51b815260206004820152600f60248201526e10dbdd5c9cd9481c995c5d5a5c9959608a1b6044820152606490fd5b60405162461bcd60e51b815260206004820152601560248201527414dd1d59195b9d081b985b59481c995c5d5a5c9959605a1b6044820152606490fd5b80518210156112ca5760209160051b010190565b156137d457565b60405162461bcd60e51b815260206004820152601560248201527410d95c9d1a599a58d85d19481b9bdd08199bdd5b99605a1b6044820152606490fdfea2646970667358221220257de6901c86b1a522f7ad592e1e6d1c5d6e9aa9303704578d0f44f0826e262c64736f6c63430008140033",
  "linkReferences": {},
  "deployedLinkReferences": {}
}